:020000040800F2
:1000000000400220ED1300084D1300084F130008B4
:100010005113000853130008551300080000000096
:10002000000000000000000000000000571300085E
:1000300059130008000000005B1300085D1300085E
:100040003D1400083D1400083D1400083D1400084C
:100050003D1400083D1400083D1400083D1400083C
:100060003D1400083D1400083D1400083D1400082C
:100070003D1400083D1400083D1400083D1400081C
:100080003D1400083D1400083D1400083D1400080C
:100090003D1400083D1400083D1400083D140008FC
:1000A0003D1400083D1400083D1400083D140008EC
:1000B0003D1400083D1400083D1400083D140008DC
:1000C0003D1400083D1400083D1400083D140008CC
:1000D0003D1400083D1400083D1400083D140008BC
:1000E0003D1400083D1400083D1400083D140008AC
:1000F0003D1400083D1400083D1400083D1400089C
:100100003D1400083D1400083D1400083D1400088B
:100110003D1400083D1400083D1400083D1400087B
:100120003D1400083D1400083D1400083D1400086B
:100130003D1400083D1400083D1400083D1400085B
:100140003D1400083D1400083D1400083D1400084B
:100150003D1400083D1400083D1400083D1400083B
:100160003D1400083D1400083D1400083D1400082B
:100170003D1400083D1400083D1400080000000074
:100180003D1400083D1400083D1400083D1400080B
:080190003D1400083D140008B5
:1001980010B5054C237833B9044B13B10448AFF3B9
:1001A80000800123237010BD100000200000000013
:1001B8009814000808B5034B1BB103490348AFF373
:1001C800008008BD000000001400002098140008FA
:1001D80010B504460E4B18684FF47A73B3FBF0F36E
:1001E8000C4A1068B0FBF3F000F098F868B9072CD7
:1001F80001D901200AE0002221464FF0FF3000F02B
:1002080055F8054B1C60002000E0012010BD00BF20
:10021800000000200C0000200400002010B504207D
:1002280000F032F80720FFF7D3FF10B10124204671
:1002380010BD044601F06EF8F9E70000034A1368A0
:10024800034909680B441360704700BF2C00002065
:1002580000000020014B1868704700BF2C000020E8
:1002680038B50446FFF7F6FF0546B4F1FF3F02D064
:10027800044B1B681C44FFF7EDFF401BA042FAD358
:1002880038BD00BF00000020074AD36823F4E063AC
:100298001B041B0C000200F4E060034343F0BF633F
:1002A80043F40033D360704700ED00E000B5194B0C
:1002B800DB68C3F30223C3F1070CBCF1030F28BFAB
:1002C8004FF0030C03F1030EBEF1060F18D9043BDF
:1002D8004FF0FF3E0EFA0CFC21EA0C0199400EFA91
:1002E80003F322EA0303194300280BDB4901C9B2CF
:1002F80000F1604000F5614080F800135DF804FBF0
:100308000023E5E700F00F004901C9B2024B195478
:10031800F4E700BF00ED00E014ED00E00138B0F1B3
:10032800807F0BD24FF0E0235861054AE02182F824
:1003380023100020986107221A6170470120704736
:1003480000ED00E0F0B583B0002239E0042500E0BC
:100358000025B5403D430434A40004F1804404F56D
:10036800803465605D4C2568DC4325EA03064F68E8
:1003780017F4803F01D043EA0506584D2E606D689A
:1003880004EA05064F6817F4003F01D043EA050662
:10039800524D6E60AD6804EA05064F6817F4801F79
:1003A80001D043EA05064D4DAE60ED682C404E681D
:1003B80016F4001F01D043EA0504484BDC60013203
:1003C8000B6833FA02F400F086804FF0010C0CFA47
:1003D80002FC1CEA0303F2D04C68022C01D0122C58
:1003E80010D1D508083550F8257002F00704A6008A
:1003F8000F24B44027EA040E0C69B44044EA0E0402
:1004080040F8254005684FEA420E032404FA0EF42A
:10041800E64325EA04054C6804F0030404FA0EF4E4
:100428002C4304604C68651E012D03D9112C01D0A2
:10043800122C10D185683540CC6804FA0EF42C4390
:100448008460456825EA0C0C4D68C5F30015954095
:1004580045EA0C054560C46826408C6804FA0EF429
:100468003443C4604C6814F0805FA8D01C4C256EDF
:1004780045F001052566246E04F001040194019CF1
:100488009408251DAD0005F1804505F580356F6898
:1004980002F00305AE000F25B54027EA0507B0F1C5
:1004A800904F3FF455AF0F4DA8420ED005F580652B
:1004B800A8420CD005F58065A8420AD005F58065EC
:1004C800A8423FF443AF052543E7012541E702254C
:1004D8003FE703253DE703B0F0BD00BF000401403E
:1004E80000100240000400480AB18161704781622F
:1004F8007047000082B01C4B01931C49D1F8802042
:1005080002F00302D1F88030C3F3810308336B444F
:1005180013F804CCD1F88030C3F3011308336B44CB
:1005280013F8040CD1F88030C3F307230233012AEF
:1005380009D0032A10D00E4AB2FBFCFC03FB0CF3D3
:10054800B3FBF0F006E00B4AB2FBFCFC03FB0CF338
:10055800B3FBF0F002B07047074AB2FBFCFC03FBA8
:100568000CF3B3FBF0F0F5E70102040800100240B9
:1005780000127A0000366E01001BB700002800F058
:100588003E8270B582B00446036813F0010F39D07B
:100598009E4B5B6803F00C03042B2AD09B4B5B68D3
:1005A80003F00C03082B16D06368B3F5803F50D0D6
:1005B8006368B3F5803F54D0002B68D103F18043C2
:1005C80003F504331A6822F480321A601A6822F498
:1005D80080221A604AE08D4BD3F8803003F0030381
:1005E800012B06D0894BD3F8803003F00303032B8B
:1005F800DAD1864B1B6813F4003F03D06368002BE5
:1006080000F0FF81236813F0020F78D07F4B5B68FE
:1006180013F00C0F6AD07D4B5B6803F00C03082BBA
:100628005ED06369002B00F08480784A136843F039
:1006380001031360FFF70EFE0546744B1B6813F0A9
:10064800020F5CD1FFF706FE401B0228F5D90320F4
:10065800DCE16E4AD36F23F44073A1680B43D36780
:10066800A6E76A4A136843F480331360636843B3A8
:10067800FFF7F0FD0546654B1B6813F4003FC1D139
:10068800FFF7E8FD401B6428F5D90320BEE1B3F568
:10069800A02F09D05D4B1A6822F480321A601A68BC
:1006A80022F480221A60E1E703F18043A3F53C338A
:1006B8001A6842F480221A601A6842F480321A607A
:1006C800D4E7FFF7C7FD0546504B1B6813F4003FFE
:1006D80098D0FFF7BFFD401B6428F5D9032095E1AA
:1006E8004A4BD3F8803013F0030F9AD1474B1B685D
:1006F80013F0020F03D06369012B40F08481236853
:1007080013F0100F3DD0A3693BB3404A936F43F0F9
:1007180010039367FFF79EFD05463C4B9B6F13F054
:10072800200F2ED1FFF796FD401B0228F5D9032094
:100738006CE1364A136823F001031360FFF78AFD62
:100748000546324B1B6813F0020FD8D0FFF782FD25
:10075800401B0228F5D9032058E12C4A936F23F057
:1007680010039367FFF776FD0546284B9B6F13F040
:10077800200F06D0FFF76EFD401B0228F5D9032095
:1007880044E1236813F0080F29D0E3699BB11F4A9D
:10079800536F43F001035367FFF75CFD05461B4B9E
:1007A8005B6F13F0020F1AD1FFF754FD401B0228AC
:1007B800F5D903202AE1154A536F23F00103536743
:1007C800FFF748FD0546114B5B6F13F0020F06D08B
:1007D800FFF740FD401B0228F5D9032016E12368E6
:1007E80013F0040F00F08B80084B9B6D13F0805FB3
:1007F8000ED1064B9A6D42F080529A659B6D03F0BC
:1008080080530193019B012503E000BF00100240C3
:100818000025844B1B6813F4807F14D0E368012BF8
:1008280025D0E368012B2AD0002B40D103F1804367
:1008380003F504331A6F22F001021A671A6F22F0C7
:1008480004021A6720E0774A136843F48073136040
:10085800FFF700FD0646734B1B6813F4807FDDD15C
:10086800FFF7F8FC801B6428F5D90320CEE06E4A18
:10087800136F23F0180321690B431367D1E76A4A02
:10088800136F43F001031367E36833B3FFF7E2FC28
:100898000646654B1B6F13F0020F2FD1FFF7DAFCEA
:1008A800801B41F288339842F3D90320AEE0052B30
:1008B80009D05D4B1A6F22F001021A671A6F22F0F5
:1008C80004021A67E0E7584B1A6F42F004021A67ED
:1008D8001A6F42F001021A67D6E7FFF7BBFC06461B
:1008E800514B1B6F13F0020F08D0FFF7B3FC801BAE
:1008F80041F288339842F3D9032087E0FDB9236A8F
:10090800002B00F08280484A526802F00C02082A44
:1009180059D0022B19D0444A136823F0807313600E
:10092800FFF798FC0446404B1B6813F0007F48D043
:10093800FFF790FC001B0328F5D9032066E03A4A2C
:10094800936D23F080539365D9E7374A136823F0F2
:1009580080731360FFF77EFC0546334B1B6813F06A
:10096800007F06D0FFF776FC401B0328F5D903204B
:100978004CE02D49D1F8803023F47F4323F03F0326
:10098800626AE06A0243206B0243A06A023842EAC4
:1009980000221343C1F880300B6843F080730B606A
:1009A800FFF758FC0446204B1B6813F0007F06D164
:1009B800FFF750FC001B0328F5D9032026E0002090
:1009C80024E0002022E0012B22D0174BD3F88030FE
:1009D80003F00301626A91421CD103F00C02E16A40
:1009E8008A4219D1C3F307220232A16A8A4215D179
:1009F80003F03003226B934212D1002006E001205D
:100A08007047012002E0012000E0002002B070BD24
:100A18000120FBE70120F9E70120F7E70120F5E7CE
:100A28000120F3E7007000400010024082B0274B1D
:100A3800019340F20123ADF80030254A5368D2F8FB
:100A4800802003F00C03042B3AD0082B3AD120491C
:100A5800D1F88030C3F3810308336B4413F804CC16
:100A6800D1F88030C3F3011308336B4413F8040C36
:100A7800D1F88030C3F30723023302F00302012ABE
:100A880009D0032A07D0134AB2FBFCF202FB03F396
:100A9800B3FBF0F017E00E4AD2F88010C1F3400122
:100AA80001F108020DEB020111F8081C0A4AB2FB19
:100AB800F1F2B2FBFCF202FB03F3B3FBF0F002E04D
:100AC800054800E0054802B0704700BF010204086D
:100AD8000010024000127A0000366E010024F40073
:100AE800002800F0CF80F8B50C460546684B1B6817
:100AF80003F00F038B420BD2654A136823F00F03F0
:100B08000B431360136803F00F038B4240F0BC8063
:100B18002B6813F0020F17D013F0040F04D05D4AAE
:100B2800536843F4E06353602B6813F0080F04D054
:100B3800584A536843F460535360564A536823F045
:100B4800F003A9680B4353602B6813F0010F4ED0D4
:100B58006B68022B1AD0012B22D04E4B1B6813F066
:100B6800020F00F09380FFF761FF4B4B98421ED9AC
:100B7800484B5B6813F0F00F35D1464A536823F0B1
:100B8800F00343F080035360802711E0414B1B685A
:100B980013F0007F01D1012055E0FFF7ABFCE4E73B
:100BA8003C4B1B6813F4003FDDD101204BE00027CC
:100BB800384A536823F0030369680B435360FFF70F
:100BC80049FB0646334B5B6803F00C036A68B3EBDA
:100BD800820F0AD0FFF73EFB801B41F28833984210
:100BE800F0D903202FE00027E2E7002F2CD1284B73
:100BF8001B6803F00F03A3422CD82B6813F0040FD3
:100C080006D0244A536823F4E063E9680B43536031
:100C18002B6813F0080F07D01E4A536823F460535B
:100C2800296943EAC1035360FFF700FF194B5B686A
:100C3800C3F30313194AD35CD840194B1860194BF6
:100C48001868FFF7C5FAF8BD124A536823F0F00395
:100C58005360CCE70E4A136823F00F032343136055
:100C6800FFF7F8FA06460A4B1B6803F00F03A34286
:100C7800C3D0FFF7EFFA801B41F288339842F2D9CC
:100C88000320E0E7012070470120DCE70120DAE7D4
:100C9800002002400010024000B4C40438150008C7
:100CA8000C0000200400002070B588B000250395D2
:100CB8000495059506950795314BDA6C42F00802C4
:100CC800DA64DA6C02F008020092009ADA6C42F0F8
:100CD8001002DA64DA6C02F010020192019ADA6CFE
:100CE80042F02002DA64DB6C03F020030293029BDB
:100CF8000126049602230693224C23689A880392BD
:100D080003A91868FFF71EFB23689A89039203A9B1
:100D18009868FFF717FB23689A8A039203A9186952
:100D2800FFF710FB23689A8B039203A99869FFF7D2
:100D380009FB23689A8C039203A9186AFFF702FB40
:100D48002368324699881868FFF7CEFB23682A463D
:100D5800998B9869FFF7C8FB23682A469989986890
:100D6800FFF7C2FB23683246998A1869FFF7BCFB74
:100D780023683246998C186AFFF7B6FB08B070BD35
:100D8800001002400800002010B50E4C2368012214
:100D9800998C186AFFF7A8FB0A20FFF761FA236805
:100DA8000022998C186AFFF79FFB0F20FFF758FA6B
:100DB80023680122998C186AFFF796FB9620FFF7A3
:100DC8004FFA10BD08000020F0B583B004461B4B55
:100DD8001B680022998B9869FFF786FB00F034FAAC
:100DE80000251CE0154B1B68002299899868FFF7BD
:100DF8007BFB00260096009B104F3B680122998BD5
:100E08009869FFF771FB0196019B3B683246998B05
:100E18009869FFF769FB6400E4B20135EDB2072D6C
:100E28000AD814F0800FDDD0044B1B680122998981
:100E38009868FFF759FBDCE703B0F0BD0800002015
:100E4800F8B507460E461546124C236800229988C5
:100E58001868FFF749FB23680022998A1869FFF789
:100E680043FB3846FFF7B0FF23680122998A1869C7
:100E7800FFF73AFB002403E0305DFFF7A5FF0134DC
:100E8800AC42F9D3034B1B68012299881868FFF715
:100E98002BFBF8BD0800002000B583B04FEA102CEA
:100EA8008DF804C08DF80500100A8DF806008DF83D
:100EB80007200A0A8DF800208DF801101A0A8DF80B
:100EC80002208DF8033004220DEB02012A20FFF7DF
:100ED800B7FF042269462B20FFF7B2FF03B05DF885
:100EE80004FB000038B505460B4C2368002299889E
:100EF8001868FFF7F9FA23680022998A1869FFF73A
:100F0800F3FA2846FFF760FF2368012299881868DA
:100F1800FFF7EAFA38BD00BF080000202DE9F041CC
:100F280096B00120FFF7DEFF052000F095F9962026
:100F3800FFF796F91120FFF7D5FF062000F08CF98E
:100F48007820FFF78DF905238DF80430012201A9D7
:100F58003A20FFF775FF00278DF80870012202A9D3
:100F68003620FFF76DFF072000F076F9484C25463C
:100F780055F8046BADF80C604FEA16488DF80E80F2
:100F8800032203A9B120FFF75BFFADF810608DF8CD
:100F98001280032204A9B220FFF752FF95E803004C
:100FA8000590ADF81810062205A9B320FFF748FFF1
:100FB80007238DF81C30012207A9B420FFF740FF52
:100FC800E368ADF820301B0C8DF82230032208A905
:100FD800C020FFF735FFC5268DF82460012209A936
:100FE800C120FFF72DFF0A258DF828508DF82970AC
:100FF80002220AA9C220FFF723FF238AADF82C306A
:1010080002220BA9C320FFF71BFFA38AADF83030DB
:1010180002220CA9C420FFF713FF0E238DF83430E9
:1010280001220DA93046FFF70BFF2120FFF75AFFD9
:10103800082000F011F90DF1380C04F118030FCB5A
:101048008CE80F0010226146E020FFF7F9FE0DF151
:10105800480C283494E80F00ACE807002CF8023B51
:101068001B0C8CF800300F2212A9E120FFF7E8FED4
:10107800092000F0F1F82920FFF734FF284600F096
:10108800EBF86420FFF7ECF816B0BDE8F08100BF7C
:10109800B014000810B50B4C236800229988186812
:1010A800FFF722FA23680022998A1869FFF71CFAC9
:1010B8002C20FFF789FE23680122998A1869FFF717
:1010C80013FA10BD0800002010B50446000AFFF707
:1010D8007BFEE0B2FFF778FE10BD0000022803D0C7
:1010E800024A034B1A607047024AFAE7E8140008FC
:1010F800080000201015000808B5032000F0ACF81F
:10110800FFF7D2FDFFF740FE042000F0A5F8FFF737
:1011180005FF08BD38B50546A123832200210846EE
:10112800FFF7BAFEFFF7B6FF002403E02846FFF7F3
:10113800CBFF013445F287339C42F7D9054B1B6836
:10114800012299881868FFF7CFF90B2000F084F87E
:1011580038BD00BF0800002010B5044680F0010229
:1011680002F0010208214FF09040FFF7BDF9620834
:1011780082F0010202F0010210214FF09040FFF7C7
:10118800B3F9A20882F0010202F0010220214FF017
:101198009040FFF7A9F9E20882F0010202F001028B
:1011A80040214FF09040FFF79FF910BD30B587B050
:1011B80000230193029303930493059303F180435F
:1011C80003F50433DA6C42F00402DA64DB6C03F0F2
:1011D80004030093009B78240194012502950223BF
:1011E800049301A94FF09040FFF7ACF82A46214636
:1011F8004FF09040FFF778F907B030BD00B587B0E1
:1012080000230193029303930493059303F180430E
:1012180003F50433DA6C42F00802DA64DB6C03F09D
:1012280008030093009B2023019301230293039357
:101238000223049301A90348FFF784F807B05DF877
:1012480004FB00BF00040048024A1368013313601E
:10125800704700BF3000002008B5024A1070FFF741
:101268007BFF08BD34000020FEE700B593B03422B0
:10127800002105A800F004F90023009301930293CC
:10128800039304931F23059301230A930D9305A841
:10129800FFF774F978B90F230093002101910291A7
:1012A80003914FF4806304936846FFF719FC20B953
:1012B80013B05DF804FBFFF7D7FFFFF7D5FF000079
:1012C80008B5FEF7ABFFFFF7D0FFFFF76FFF012070
:1012D800FFF7C2FFFFF792FF0220FFF7BDFF0220D2
:1012E800FFF7FCFEFFF708FF4FF6FF70FFF712FF4E
:1012F800074B1B6813F0010F0CBF012200220821C5
:101308004FF09040FFF7F0F86420FEF7A9FFEFE7F1
:101318003000002082B00A4B1A6E42F001021A66B1
:101328001A6E02F001020092009A9A6D42F0805201
:101338009A659B6D03F080530193019B02B070473F
:10134800001002407047FEE7FEE7FEE7FEE7704741
:101358007047704708B5FEF771FF08BD1C4AD36C8B
:1013680043F08003D3641B4B5B6A03F4C063B3F59B
:10137800806F0BD0174B5B6A03F4C063B3F5806FC3
:10138800F1D0154B1B6913F0200FECD0104BDA6C21
:1013980022F08002DA649A6D42F080529A650F4A10
:1013A800116821F4C0611160116821F4C051116005
:1013B8009A6D22F080529A65094BD3F8882042F43E
:1013C8007002C3F888204FF000629A60704700BF2F
:1013D8000010024000200240001400480070004045
:1013E80000ED00E00D4885460D480E490E4A0023E1
:1013F80002E0D458C4500433C4188C42F9D30B4AC1
:101408000B4C002301E013600432A242FBD3FFF728
:10141800A5FF00F011F8FFF753FFFEE70040022098
:1014280000000020100000205015000810000020C7
:1014380038000020FEE7000070B50D4D0D4C641B10
:10144800A4100026A64209D10B4D0C4C00F020F840
:10145800641BA4100026A64205D170BD55F8043BB4
:1014680098470136EEE755F8043B98470136F2E70E
:101478004815000848150008481500084C150008CC
:1014880002440346934200D1704703F8011BF9E771
:10149800F8B500BFF8BC08BC9E467047F8B500BF59
:0814A800F8BC08BC9E46704729
:1014B000012C2D00012C2D012C2D0000A2028400F6
:1014C0008A2A00008AEE00000F1A0F182F28202207
:1014D0001F1B2337000702100F1B0F17332C292E59
:1014E0003030390007031000000C00488000000075
:1014F000000400484000000000080048000100000F
:101500000008004800020000000C004840000000F5
:10151000000C004808000000000C004820000000FB
:10152000000C004840000000000C004810000000C3
:10153000000800480001000000000000000000005A
:0815400001020304060708097B
:04154800BD010008D9
:04154C0099010008F9
:101550000100000008000000101500080024F4003D
:04000005080013EDEF
:00000001FF
