:020000040800F2
:1000000000400220A5150008051500080715000886
:10001000091500080B1500080D1500080000000068
:100020000000000000000000000000000F150008A4
:100030001115000800000000131500081515000830
:10004000F5150008F5150008F5150008F515000868
:10005000F5150008F5150008F5150008F515000858
:10006000F5150008F5150008F5150008F515000848
:10007000F5150008F5150008F5150008F515000838
:10008000F5150008F5150008F5150008F515000828
:10009000F5150008F5150008F5150008F515000818
:1000A000F5150008F5150008F5150008F515000808
:1000B000F5150008F5150008F5150008F5150008F8
:1000C000F5150008F5150008F5150008F5150008E8
:1000D000F5150008F5150008F5150008F5150008D8
:1000E000F5150008F5150008F5150008F5150008C8
:1000F000F5150008F5150008F5150008F5150008B8
:10010000F5150008F5150008F5150008F5150008A7
:10011000F5150008F5150008F5150008F515000897
:10012000F5150008F5150008F5150008F515000887
:10013000F5150008F5150008F5150008F515000877
:10014000F5150008F5150008F5150008F515000867
:10015000F5150008F5150008F5150008F515000857
:10016000F5150008F5150008F5150008F515000847
:10017000F5150008F5150008F51500080000000049
:10018000F5150008F5150008F5150008F515000827
:08019000F5150008F515000843
:1001980010B5054C237833B9044B13B10448AFF3B9
:1001A80000800123237010BD0C0000200000000017
:1001B8005016000808B5034B1BB103490348AFF3B9
:1001C800008008BD00000000100000205016000844
:1001D80010B504460E4B18684FF47A73B3FBF0F36E
:1001E8000C4A1068B0FBF3F000F098F868B9072CD7
:1001F80001D901200AE0002221464FF0FF3000F02B
:1002080055F8054B1C60002000E0012010BD00BF20
:1002180000000020080000200400002010B5042081
:1002280000F032F80720FFF7D3FF10B10124204671
:1002380010BD044601F04AF9F9E70000034A1368C3
:10024800034909680B441360704700BF2800002069
:1002580000000020014B1868704700BF28000020EC
:1002680038B50446FFF7F6FF0546B4F1FF3F02D064
:10027800044B1B681C44FFF7EDFF401BA042FAD358
:1002880038BD00BF00000020074AD36823F4E063AC
:100298001B041B0C000200F4E060034343F0BF633F
:1002A80043F40033D360704700ED00E000B5194B0C
:1002B800DB68C3F30223C3F1070CBCF1030F28BFAB
:1002C8004FF0030C03F1030EBEF1060F18D9043BDF
:1002D8004FF0FF3E0EFA0CFC21EA0C0199400EFA91
:1002E80003F322EA0303194300280BDB4901C9B2CF
:1002F80000F1604000F5614080F800135DF804FBF0
:100308000023E5E700F00F004901C9B2024B195478
:10031800F4E700BF00ED00E014ED00E00138B0F1B3
:10032800807F0BD24FF0E0235861054AE02182F824
:1003380023100020986107221A6170470120704736
:1003480000ED00E0F0B583B0002239E0042500E0BC
:100358000025B5403D430434A40004F1804404F56D
:10036800803465605D4C2568DC4325EA03064F68E8
:1003780017F4803F01D043EA0506584D2E606D689A
:1003880004EA05064F6817F4003F01D043EA050662
:10039800524D6E60AD6804EA05064F6817F4801F79
:1003A80001D043EA05064D4DAE60ED682C404E681D
:1003B80016F4001F01D043EA0504484BDC60013203
:1003C8000B6833FA02F400F086804FF0010C0CFA47
:1003D80002FC1CEA0303F2D04C68022C01D0122C58
:1003E80010D1D508083550F8257002F00704A6008A
:1003F8000F24B44027EA040E0C69B44044EA0E0402
:1004080040F8254005684FEA420E032404FA0EF42A
:10041800E64325EA04054C6804F0030404FA0EF4E4
:100428002C4304604C68651E012D03D9112C01D0A2
:10043800122C10D185683540CC6804FA0EF42C4390
:100448008460456825EA0C0C4D68C5F30015954095
:1004580045EA0C054560C46826408C6804FA0EF429
:100468003443C4604C6814F0805FA8D01C4C256EDF
:1004780045F001052566246E04F001040194019CF1
:100488009408251DAD0005F1804505F580356F6898
:1004980002F00305AE000F25B54027EA0507B0F1C5
:1004A800904F3FF455AF0F4DA8420ED005F580652B
:1004B800A8420CD005F58065A8420AD005F58065EC
:1004C800A8423FF443AF052543E7012541E702254C
:1004D8003FE703253DE703B0F0BD00BF000401403E
:1004E80000100240000400480AB18161704781622F
:1004F8007047000082B01C4B01931C49D1F8802042
:1005080002F00302D1F88030C3F3810308336B444F
:1005180013F804CCD1F88030C3F3011308336B44CB
:1005280013F8040CD1F88030C3F307230233012AEF
:1005380009D0032A10D00E4AB2FBFCFC03FB0CF3D3
:10054800B3FBF0F006E00B4AB2FBFCFC03FB0CF338
:10055800B3FBF0F002B07047074AB2FBFCFC03FBA8
:100568000CF3B3FBF0F0F5E70102040800100240B9
:1005780000127A0000366E01001BB700002800F058
:10058800778270B582B00446036813F0010F3AD041
:10059800994B5B6803F00C03042B2BD0964B5B68DC
:1005A80003F00C03082B17D06368B3F5803F53D0D2
:1005B8006368B3F5803F73D0002B40F0878003F168
:1005C800804303F504331A6822F480321A601A68EB
:1005D80022F480221A6068E0874BD3F8803003F059
:1005E8000303012B06D0844BD3F8803003F00303B8
:1005F800032BD9D1804B1B6813F4003F03D06368E9
:10060800002B00F03782236813F0020F00F0988067
:10061800794B5B6813F00C0F00F08980764B5B68B0
:1006280003F00C03082B7BD06369002B00F0A28039
:10063800714A136843F001031360FFF70BFE054688
:100648006D4B1B6813F0020F7AD1FFF703FE401BB6
:100658000228F5D9032012E203F1804303F5883319
:100668001A6822F480321A601A6822F480221A600A
:10067800FFF7F0FD0546604B1B6803F40033012BC0
:1006880006D1FFF7E7FD401B6428F4D90320F6E103
:10069800594AD36F23F44073A1680B43D36787E7A4
:1006A800554A136843F480331360636843B3FFF714
:1006B800D1FD0546504B1B6813F4003FA3D1FFF74B
:1006C800C9FD401B6428F5D90320D8E1B3F5A02F54
:1006D80009D0494B1A6822F480321A601A6822F449
:1006E80080221A60E1E703F18043A3F53C331A68DE
:1006F80042F480221A601A6842F480321A60D4E701
:10070800FFF7A8FD05463C4B1B6813F4003F3FF478
:100718007AAFFFF79FFD401B6428F4D90320AEE1B0
:10072800354BD3F8803013F0030F7FF47DAF324B95
:100738001B6813F0020F03D06369012B40F09C8102
:10074800236813F0100F3DD0A3693BB32A4A936F77
:1007580043F010039367FFF77DFD0546264B9B6F1B
:1007680013F0200F2ED1FFF775FD401B0228F5D995
:10077800032084E1204A136823F001031360FFF784
:1007880069FD05461C4B1B6813F0020FD8D0FFF714
:1007980061FD401B0228F5D9032070E1164A936FCA
:1007A80023F010039367FFF755FD0546124B9B6F27
:1007B80013F0200F06D0FFF74DFD401B0228F5D996
:1007C80003205CE1236813F0080F29D0E369ABB17B
:1007D800094A536F43F001035367FFF73BFD054692
:1007E800054B5B6F13F0020F1AD1FFF733FD401B67
:1007F8000228F5D9032042E100100240A54A536FB0
:1008080023F001035367FFF725FD0546A14B5B6FF6
:1008180013F0020F04D0FFF71DFD401B0228F5D985
:10082800236813F0040F00F0A3809A4B9B6D13F01C
:10083800805F24D1974B9A6D42F080529A659B6DE8
:1008480003F080530193019B0125934B1B6813F41C
:10085800807F16D0E368012B27D0E368012B47D0AF
:10086800002B5DD103F1804303F504331A6F22F0A6
:1008780001021A671A6F22F004021A673DE0002588
:10088800E3E7854A136843F480731360FFF7E2FCDB
:100898000646814B1B6813F4807FDBD1FFF7DAFC37
:1008A800801B6428F5D90320E9E07A4B1A6F22F0FF
:1008B80001021A671A6F22F004021A67FFF7CAFCCE
:1008C8000646744B1B6F03F00203012B08D1FFF798
:1008D800C1FC801B41F288339842F2D90320CEE054
:1008E8006C4A136F23F0180321690B431367B4E7AD
:1008F800684A136F43F001031367E36833B3FFF7E4
:10090800A9FC0646634B1B6F13F0020F2FD1FFF7AC
:10091800A1FC801B41F288339842F3D90320AEE052
:10092800052B09D05B4B1A6F22F001021A671A6F68
:1009380022F004021A67E0E7564B1A6F42F00402ED
:100948001A671A6F42F001021A67D6E7FFF782FCAE
:100958000646504B1B6F13F0020F08D0FFF77AFCC6
:10096800801B41F288339842F3D9032087E0FDB910
:10097800236A002B00F08280464A526802F00C027B
:10098800082A59D0022B19D0424A136823F08073E1
:100998001360FFF75FFC04463E4B1B6813F0007FB3
:1009A80048D0FFF757FC001B0328F5D9032066E061
:1009B800384A936D23F080539365D9E7354A136815
:1009C80023F080731360FFF745FC0546314B1B6825
:1009D80013F0007F06D0FFF73DFC401B0328F5D934
:1009E80003204CE02B49D1F8803023F47F4323F0D7
:1009F8003F03626AE06A0243206B0243A06A02383E
:100A080042EA00221343C1F880300B6843F0807338
:100A18000B60FFF71FFC04461E4B1B6813F0007F9A
:100A280006D1FFF717FC001B0328F5D9032026E0A1
:100A3800002024E0002022E0012B22D0154BD3F81F
:100A4800803003F00301626A91421CD103F00C026A
:100A5800E16A8A4219D1C3F307220232A16A8A42A3
:100A680015D103F03003226B934217D1002006E022
:100A780001207047012002E0012000E0002002B0C0
:100A880070BD0120FBE70120F9E70120F7E701200D
:100A9800F5E700BF00100240007000400120EEE7BB
:100AA80082B0274B019340F20123ADF80030254A6C
:100AB8005368D2F8802003F00C03042B3AD0082B9B
:100AC8003AD12049D1F88030C3F3810308336B440D
:100AD80013F804CCD1F88030C3F3011308336B4406
:100AE80013F8040CD1F88030C3F30723023302F063
:100AF8000302012A09D0032A07D0134AB2FBFCF2E9
:100B080002FB03F3B3FBF0F017E00E4AD2F88010B3
:100B1800C1F3400101F108020DEB020111F8081CB4
:100B28000A4AB2FBF1F2B2FBFCF202FB03F3B3FB9D
:100B3800F0F002E0054800E0054802B0704700BF49
:100B4800010204080010024000127A0000366E010B
:100B58000024F400002800F0CF80F8B50C460546C4
:100B6800684B1B6803F00F038B420BD2654A13686E
:100B780023F00F030B431360136803F00F038B423A
:100B880040F0BC802B6813F0020F17D013F0040F4D
:100B980004D05D4A536843F4E06353602B6813F054
:100BA800080F04D0584A536843F460535360564AB8
:100BB800536823F0F003A9680B4353602B6813F0C4
:100BC800010F4ED06B68022B1AD0012B22D04E4B4E
:100BD8001B6813F0020F00F09380FFF761FF4B4B87
:100BE80098421ED9484B5B6813F0F00F35D1464A3E
:100BF800536823F0F00343F080035360802711E02B
:100C0800414B1B6813F0007F01D1012055E0FFF72D
:100C180071FCE4E73C4B1B6813F4003FDDD1012075
:100C28004BE00027384A536823F0030369680B43F5
:100C38005360FFF70FFB0646334B5B6803F00C036A
:100C48006A68B3EB820F0AD0FFF704FB801B41F2FE
:100C580088339842F0D903202FE00027E2E7002FDD
:100C68002CD1284B1B6803F00F03A3422CD82B6808
:100C780013F0040F06D0244A536823F4E063E968AC
:100C88000B4353602B6813F0080F07D01E4A5368B4
:100C980023F46053296943EAC1035360FFF700FF57
:100CA800194B5B68C3F30313194AD35CD840194B3B
:100CB8001860194B1868FFF78BFAF8BD124A536889
:100CC80023F0F0035360CCE70E4A136823F00F03B8
:100CD80023431360FFF7BEFA06460A4B1B6803F06E
:100CE8000F03A342C3D0FFF7B5FA801B41F2883344
:100CF8009842F2D90320E0E7012070470120DCE7A1
:100D08000120DAE7002002400010024000B4C404C9
:100D1800A854000808000020040000200022072A28
:100D280042D884B01DE0202343F480134FF0904153
:100D3800C1F8183C00230093009B1E4B1B78B3B9E5
:100D48004FF090431021C3F8181C00230293029B14
:100D5800184B1B78B3B94000C0B20132D2B2072A8F
:100D68001BD810F0800FDED14FF40013DCE700230E
:100D7800019303E000BF019B01330193019B272BE3
:100D8800F8D9DDE70023039303E000BF039B013399
:100D98000393039B272BF8D9DDE74FF090431022EC
:100DA800C3F8182C04B070474FF090431022C3F8D2
:100DB800182C70472C00002010B50446000AFFF7D5
:100DC800ADFFE0B2FFF7AAFF10BD00002DE9F04F1C
:100DD80087B0002401940294039404940594012696
:100DE8000296022304934FF0080BCDF804B01A4D75
:100DF80001A92846FFF7A6FA4FF0200ACDF804A06B
:100E080001A92846FFF79EFA4FF01009CDF8049083
:100E180001A92846FFF796FA4FF48078CDF80480A8
:100E28000E4F01A93846FFF78DFA32465946284633
:100E3800FFF75AFB224651462846FFF755FB324634
:100E480049462846FFF750FB224641463846FFF7F9
:100E58004BFB07B0BDE8F08F000C004800080048C5
:100E680000B585B0144BDA6C42F02002DA64DA6C13
:100E780002F020020092009ADA6C42F00402DA646E
:100E8800DA6C02F004020192019ADA6C42F0100264
:100E9800DA64DA6C02F010020292029ADA6C42F01A
:100EA8008002DA64DB6C03F080030393039BFFF793
:100EB8008DFF05B05DF804FB0010024030B587B027
:100EC80000230193029303930493059303F1804352
:100ED80003F50433DA6C42F00402DA64DB6C03F0E5
:100EE80004030093009B78240194012502950223B2
:100EF800049301A94FF09040FFF724FA2A462146AF
:100F08004FF09040FFF7F0FA07B030BDF8B504464F
:100F18000E461546002208211048FFF7E5FA104F43
:100F280000224FF480713846FFF7DEFA2046FFF7BB
:100F3800F5FE01224FF480713846FFF7D5FA0024F8
:100F480003E0305DFFF7EAFE0134AC42F9D3012239
:100F580008210248FFF7C8FAF8BD00BF000C004896
:100F68000008004800B583B04FEA102C8DF804C083
:100F78008DF80500100A8DF806008DF807200A0A7A
:100F88008DF800208DF801101A0A8DF802208DF8CE
:100F9800033004220DEB02012A20FFF7B7FF0422D9
:100FA80069462B20FFF7B2FF03B05DF804FB000091
:100FB80038B5044600224FF480710948FFF794FAC7
:100FC800084D002208212846FFF78EFA2046FFF731
:100FD800A5FE012208212846FFF786FA38BD00BF82
:100FE80000080048000C004838B50546EF2340F2D9
:100FF8003F1200210846FFF7B5FF2C20FFF7D8FF66
:1010080001224FF480710D48FFF76EFA0022082183
:101018000B48FFF769FA002406E0280AFFF77EFE6E
:10102800E8B2FFF77BFE0134B4F5963FF5D3012211
:1010380008210348FFF758FA38BD00BF00080048E8
:10104800000C004870B5BDF8105002B103B970BD6E
:1010580003FB02F6024492B20B449BB2013B013AF5
:101068009BB292B2FFF77EFF2C20FFF7A1FF01226F
:101078004FF480710C48FFF737FA002208210B481B
:10108800FFF732FA002406E0280AFFF747FEE8B225
:10109800FFF744FE0134B442F6D301220821034885
:1010A800FFF722FAD3E700BF00080048000C004809
:1010B80070B5049E03FB02F5024492B20B449BB246
:1010C800013B013A9BB292B2FFF74CFF2C20FFF78D
:1010D8006FFF01224FF480710B48FFF705FA0022D9
:1010E80008210A48FFF700FA002404E036F8140043
:1010F800FFF762FE0134AC42F8D30122082103480D
:10110800FFF7F2F970BD00BF00080048000C004866
:1011180010B50446012208214FF09040FFF7E4F98A
:10112800012210214FF09040FFF7DEF90122202123
:101138004FF09040FFF7D8F9012240214FF090403E
:10114800FFF7D2F934B9012C0BD8022C10D8032C94
:1011580015D810BD002208214FF09040FFF7C4F9C0
:10116800F1E7002210214FF09040FFF7BDF9ECE7BE
:10117800002220214FF09040FFF7B6F9E7E7002260
:1011880040214FF09040FFF7AFF9E2E7F0B59DB08E
:101198007820FFF765F80220FFF7BAFF6C4F0125AA
:1011A8003D702846FFF704FF7820FFF759F8694C8F
:1011B8002368ADF804301B0C8DF80630032201A912
:1011C800EF20FFF7A3FE6368ADF808301B0C8DF81D
:1011D8000A30032202A9CF20FFF798FEA3680393E1
:1011E800042203A9ED20FFF791FEE368ADF8103063
:1011F8001B0C8DF81230032204A9E820FFF786FEA5
:1012080004F1100393E8030005908DF818100522E7
:1012180005A9CB20FFF77AFE20238DF81C302A463B
:1012280007A9F720FFF772FE00268DF820608DF8D9
:101238002160022208A9EA20FFF768FE23238DF81F
:1012480024302A4609A9C020FFF760FE10238DF834
:1012580028302A460AA9C120FFF758FE238BADF88B
:101268002C3002220BA9C520FFF750FE86238DF8EB
:1012780030302A460CA9C720FFF748FE28238DF8EE
:1012880034302A460DA93620FFF740FE8DF8386025
:101298002A460EA93720FFF739FE55238DF83C3032
:1012A8002A460FA93A20FFF731FE8DF8406018232F
:1012B8008DF84130022210A9B120FFF727FEE3691B
:1012C800ADF844301B0C8DF84630032211A9B62026
:1012D800FFF71CFE8DF848602A4612A9F220FFF796
:1012E80015FE8DF84C502A4613A92620FFF70EFE4E
:1012F80014AD04F120030FCB07C525F8023B1B0CE6
:101308002B700F2214A9E020FFF700FE18AD30342F
:1013180094E80F0007C525F8023B1B0C2B700F2221
:1013280018A9E120FFF7F2FD1120FFF741FE782010
:10133800FEF796FF2920FFF73BFE1420FEF790FFEB
:101348003E704FF6FF70FFF74FFE1DB0F0BD00BFB7
:101358002C00002068160008FEE700B593B0342280
:10136800002105A800F068F9002300930193029377
:10137800039304931F23059301230A9302230D93D8
:1013880012230F9305A8FFF7F9F888B90F230093E4
:1013980002230193002302934FF480630393049381
:1013A80006216846FFF7D6FB20B913B05DF804FBA9
:1013B800FFF7D2FFFFF7D0FF2DE9F04782B0FEF725
:1013C8002DFFFFF7CAFFFFF74BFDFFF777FD012061
:1013D800FFF79EFE4FF4C870FEF742FFFFF7D6FEF8
:1013E8004FF0020803274FF0140A534631E07F42BA
:1013F8007FB20024002D07DDB12D0ADDC8F10008F9
:101408004FFA88F8B22504E0C8F100084FFA88F8C6
:101418000025A3422FDBA34239DCAA4545DAAB1BE2
:101428004FF6FF7200929BB2802231464846FFF782
:1014380009FE254B00933E238022A9B2A0B2FFF7F4
:1014480037FE0320FFF764FE1020FEF709FFAA46C7
:1014580023461FFA83F909EB070424B21FFA8AF618
:1014680006EB08052DB2002CC1DDBF2CC2DD7F4282
:101478007FB2C024BEE7A4EB09024FF6FF730093C6
:101488003E2392B231464846FFF7DCFDC5E7A0B2DD
:10149800A9EB000280304FF6FF7300933E2392B20F
:1014A800314680B2FFF7CEFDB7E7AA45C1DDA9B244
:1014B800731A3E314FF6FF7200929BB2802289B2B6
:1014C8004846FFF7BFFDB4E7A816000882B00A4BEC
:1014D8001A6E42F001021A661A6E02F001020092B8
:1014E800009A9A6D42F080529A659B6D03F0805382
:1014F8000193019B02B07047001002407047FEE75D
:10150800FEE7FEE7FEE770477047704708B5FEF74D
:1015180095FE08BD1C4AD36C43F08003D3641B4B73
:101528005B6A03F4C063B3F5806F0BD0174B5B6A3B
:1015380003F4C063B3F5806FF1D0154B1B6913F04A
:10154800200FECD0104BDA6C22F08002DA649A6D2E
:1015580042F080529A650F4A116821F4C061116007
:10156800116821F4C05111609A6D22F080529A6579
:10157800094BD3F8882042F47002C3F888204FF052
:1015880000629A60704700BF0010024000200240CD
:10159800001400480070004000ED00E00D4885464A
:1015A8000D480E490E4A002302E0D458C4500433B3
:1015B800C4188C42F9D30B4A0B4C002301E013608A
:1015C8000432A242FBD3FFF7A5FF00F011F8FFF7A2
:1015D800F3FEFEE700400220000000200C0000207F
:1015E800C05400080C00002030000020FEE7000076
:1015F80070B50D4D0D4C641BA4100026A64209D1F0
:101608000B4D0C4C00F020F8641BA4100026A642D9
:1016180005D170BD55F8043B98470136EEE755F8FB
:10162800043B98470136F2E7B8540008B85400085C
:10163800B8540008BC54000802440346934200D141
:10164800704703F8011BF9E7F8B500BFF8BC08BC00
:101658009E467047F8B500BFF8BC08BC9E46704768
:101668000380020000C13000640312818500780005
:10167800392C0034020000003E28000008822700B0
:101688000F312B0C0E084EF1370710030E0900001E
:10169800000E1403110731C148080F0C31360F0032
:1016A800D4F5AEFC8EF48EF48EF48EF48EF48EF4B3
:1016B8008EF48EF48EF48EF48EF48EF48EF48EF412
:1016C8008EF48EF48EF48EF48EF48EF48EF48EF402
:1016D8008EF48EF48EF48EF48EF48EF48EF48EF4F2
:1016E8008EF48EF48EF48EF48EF48EF48EF48EF4E2
:1016F8008EF48EF48EF48EF48EF48EF48EF48EF4D2
:101708008EF48EF48EF48EF48EF48EF48EF48EF4C1
:101718008EF48EF48EF48EF48EF48EF48EF48EF4B1
:101728008EF48EF48EF48EF48EF48EF48EF48EF4A1
:101738008EF48EF48EF48EF48EF48EF48EF48EF491
:101748008EF48EF48EF48EF48EF48EF48EF48EF481
:101758008EF48EF48EF48EF48EF48EF48EF48EF471
:101768008EF48EF48EF48EF48EF48EF48EF48EF461
:101778008EF48EF48EF48EF48EF48EF48EF48EF451
:101788008EF48EF48EF48EF48EF48EF48EF48EF441
:101798008EF48EF48EF48EF48EF48EF48EF4AEFC09
:1017A8004CEC45FB05FB05FB05FB05FB05FB05FBB9
:1017B80005FB05FB05FB05FB05FB05FB05FB05FB21
:1017C80005FB05FB05FB05FB05FB05FB05FB05FB11
:1017D80005FB05FB05FB05FB05FB05FB05FB05FB01
:1017E80005FB05FB05FB05FB05FB05FB05FB05FBF1
:1017F80005FB05FB05FB05FB05FB05FB05FB05FBE1
:1018080005FB05FB05FB05FB05FB05FB05FB05FBD0
:1018180005FB05FB05FB05FB05FB05FB05FB05FBC0
:1018280005FB05FB05FB05FB05FB05FB05FB05FBB0
:1018380005FB05FB05FB05FB05FB05FB05FB05FBA0
:1018480005FB05FB05FB05FB05FB05FB05FB05FB90
:1018580005FB05FB05FB05FB05FB05FB05FB05FB80
:1018680005FB05FB05FB05FB05FB05FB05FB05FB70
:1018780005FB05FB05FB05FB05FB05FB05FB05FB60
:1018880005FB05FB05FB05FB05FB05FB05FB05FB50
:1018980005FB05FB05FB05FB05FB05FB05FB25FB20
:1018A8008EF405FBC4EAC4EAC4EAC4EAC4EAC4EA9A
:1018B800C4EAC4EAC4EAC4EAC4EAC4EAC4EAC4EAB0
:1018C800C4EAC4EAC4EAC4EAC4EAC4EAC4EAC4EAA0
:1018D800C4EAC4EAC4EAC4EAC4EAC4EAC4EAC4EA90
:1018E800C4EAC4EAC4EAC4EAC4EAC4EAC4EAC4EA80
:1018F800C4EAC4EAC4EAC4EAC4EAC4EAC4EAC4EA70
:10190800C4EAC4EAC4EAC4EAC4EAC4EAC4EAC4EA5F
:10191800C4EAC4EAC4EAC4EAC4EAC4EAC4EAC4EA4F
:10192800C4EAC4EAC4EAC4EAC4EAC4EAC4EAC4EA3F
:10193800C4EAC4EAC4EAC4EAC4EAC4EAC4EAC4EA2F
:10194800C4EAC4EAC4EAC4EAC4EAC4EAC4EAC4EA1F
:10195800C4EAC4EAC4EAC4EAC4EAC4EAC4EAC4EA0F
:10196800C4EAC4EAC4EAC4EAC4EAC4EAC4EAC4EAFF
:10197800C4EAC4EAC4EAC4EAC4EAC4EAC4EAC4EAEF
:10198800C4EAC4EAC4EAC4EAC4EAC4EAC4EAC4EADF
:10199800C4EAC4EAC4EAC4EAC4EAC4EAC4EA05FB7D
:1019A8008EF405FBC4EAC4EAC4EAC4EAC4EAC4EA99
:1019B800C4EAC4EAC4EAC4EAC4EAC4EAC4EAC4EAAF
:1019C800C4EAC4EAC4EAC4EAC4EAC4EAC4EAC4EA9F
:1019D800C4EAC4EAC4EAC4EAC4EAC4EAC4EAC4EA8F
:1019E800C4EAC4EAC4EAC4EAC4EAC4EAC4EAC4EA7F
:1019F800C4EAC4EAC4EAC4EAC4EAC4EAC4EAC4EA6F
:101A0800C4EAC4EAC4EAC4EAC4EAC4EAC4EAC4EA5E
:101A1800C4EAC4EAC4EAC4EAC4EAC4EAC4EAC4EA4E
:101A2800C4EAC4EAC4EAC4EAC4EAC4EAC4EAC4EA3E
:101A3800C4EAC4EAC4EAC4EAC4EAC4EAC4EAC4EA2E
:101A4800C4EAC4EAC4EAC4EAC4EAC4EAC4EAC4EA1E
:101A5800C4EAC4EAC4EAC4EAC4EAC4EAC4EAC4EA0E
:101A6800C4EAC4EAC4EAC4EAC4EAC4EAC4EAC4EAFE
:101A7800C4EAC4EAC4EAC4EAC4EAC4EAC4EAC4EAEE
:101A8800C4EAC4EAC4EAC4EAC4EAC4EAC4EAC4EADE
:101A9800C4EAC4EAC4EAC4EAC4EAC4EAC4EA05FB7C
:101AA8008EF405FBC4EAC4EAC4EAC4EAC4EAC4EA98
:101AB800A4EAA4E283E283E2A3E2A4EAC4EAC4EAD1
:101AC800C4EAA4EAA3E283E2A3E2A4E2C4EAC4EA81
:101AD800C4EAC4EAC4EAC4EAC4EAC4EAC4EAC4EA8E
:101AE800C4EAC4EAC4EAC4EAC4EAC4EAC4EAA4E2A6
:101AF800A3E283E2A3E2A4E2C4EAC4EAC4EAC4EA31
:101B0800A4E283E283E2A3E2A4EAC4EAC4EAC4EA60
:101B1800C4EAC4EAC4EAC4EAC4EAC4EAC4EAC4EA4D
:101B2800C4EAC4EAC4EAC4EAC4EAC4EAC4EAC4EA3D
:101B3800C4EAC4EAC4EAC4EAC4EAC4EAC4EAC4EA2D
:101B4800C4EAC4EAC4EAC4EAC4EAC4EAC4EAC4EA1D
:101B5800C4EAC4EAC4EAC4EAC4EAC4EAC4EAC4EA0D
:101B6800C4EAC4EAC4EAC4EAC4EAC4EAC4EAC4EAFD
:101B7800C4EAC4EAC4EAC4EAC4EAC4EAC4EAC4EAED
:101B8800C4EAC4EAC4EAC4EAC4EAC4EAC4EAC4EADD
:101B9800C4EAC4EAC4EAC4EAC4EAC4EAC4EA05FB7B
:101BA8008EF405FBC4EAC4EAC4EAC4EAC4EAC4EA97
:101BB80006EB68EBC9EB0BEC6DECCFF410F530F5E8
:101BC800EFF4AEF44CECEAEBA9EB47EBE5EAA3E261
:101BD800A3E2C4EAC4EAC4EAC4EAC4EAC4EAC4EAB6
:101BE800C4EAC4EAC4EAC4EAA3E283E2E5EA47EB4A
:101BF80089EBEAEB4CECAEF4EFF410F510F5CFF40A
:101C08008DF40BECC9EB88EB26EBC4EAC4EAC4EA12
:101C1800C4EAC4EAC4EAC4EAC4EAC4EAC4EAC4EA4C
:101C2800C4EAC4EAC4EAC4EAC4EAC4EAC4EAC4EA3C
:101C3800C4EAC4EAC4EAC4EAC4EAC4EAC4EAC4EA2C
:101C4800C4EAC4EAC4EAC4EAC4EAC4EAC4EAC4EA1C
:101C5800C4EAC4EAC4EAC4EAC4EAC4EAC4EAC4EA0C
:101C6800C4EAC4EAC4EAC4EAC4EAC4EAC4EAC4EAFC
:101C7800C4EAC4EAC4EAC4EAC4EAC4EAC4EAC4EAEC
:101C8800C4EAC4EAC4EAC4EAC4EAC4EAC4EAC4EADC
:101C9800C4EAC4EAC4EAC4EAC4EAC4EAC4EA05FB7A
:101CA8008EF405FBC4EAC4EAC4EAC4EAC4EA4CEC0C
:101CB800D4F5D9FE9DFFFFFFDEFF9DFF9DFF9DFF31
:101CC8009DFFBEFFFFFFDFFF3CFF77FE93F58DF41E
:101CD800C9EB06EB83E2A4EAC4EAC4EAC4EAC4EAAC
:101CE800C4EAA4EA83E2E5EAA9EB6DEC72F557FED3
:101CF8003BFFDEFFFFFFBEFF9DFF9DFF9DFFBEFF79
:101D0800DFFFFFFF9DFFFAFEF5F54CECE5EAC4EABC
:101D1800C4EAC4EAC4EAC4EAC4EAC4EAC4EAC4EA4B
:101D2800C4EAC4EAC4EAC4EAC4EAC4EAC4EAC4EA3B
:101D3800C4EAC4EAC4EAC4EAC4EAC4EAC4EAC4EA2B
:101D4800C4EAC4EAC4EAC4EAC4EAC4EAC4EAC4EA1B
:101D5800C4EAC4EAC4EAC4EAC4EAC4EAC4EAC4EA0B
:101D6800C4EAC4EAC4EAC4EAC4EAC4EAC4EAC4EAFB
:101D7800C4EAC4EAC4EAC4EAC4EAC4EAC4EAC4EAEB
:101D8800C4EAC4EAC4EAC4EAC4EAC4EAC4EAC4EADB
:101D9800C4EAC4EAC4EAC4EAC4EAC4EAC4EA05FB79
:101DA8008EF405FBC4EAC4EAC4EAA4EA47EBD9FE08
:101DB800FFFFD9FE56F6D4F551F5F0F4CFF4CFF481
:101DC800EFF410F572F5F4F557F6FAFE9DFFFFFFF4
:101DD8003BFFF4F58EF467EBA3E2A4EAC4EAA4EAB5
:101DE800A3E247EB6DECB3F5FAFEFFFFBEFFFAFE88
:101DF80077FEF5F572F531F5EFF4CFF4EFF410F561
:101E080051F5B3F516F6B8FEBEFF1BFF88EBA3E24B
:101E1800C4EAC4EAC4EAC4EAC4EAC4EAC4EAC4EA4A
:101E2800C4EAC4EAC4EAC4EAC4EAC4EAC4EAC4EA3A
:101E3800C4EAC4EAC4EAC4EAC4EAC4EAC4EAC4EA2A
:101E4800C4EAC4EAC4EAC4EAC4EAC4EAC4EAC4EA1A
:101E5800C4EAC4EAC4EAC4EAC4EAC4EAC4EAC4EA0A
:101E6800C4EAC4EAC4EAC4EAC4EAC4EAC4EAC4EAFA
:101E7800C4EAC4EAC4EAC4EAC4EAC4EAC4EAC4EAEA
:101E8800C4EAC4EAC4EAC4EAC4EAC4EAC4EAC4EADA
:101E9800C4EAC4EAC4EAC4EAC4EAC4EAC4EA05FB78
:101EA8008EF405FBC4EAC4EAC4EAA4EAEFF4BEFF70
:101EB800F5F5A9EBE5EAA3E283E2A3E2A3E2A3E254
:101EC800A3E2A3E283E2A4E226EBC9EB8DF472F568
:101ED80098FEBEFFDFFF98FEF0F467EBA4E226EB66
:101EE800AEF457FEBEFFDFFFB9FE93F5AEF4EAEBA2
:101EF80026EBA4EA83E2A3E2A3E2A3E2A3E2A3E23D
:101F0800A3E283E2C4EA47EBF5F5DFFF8EF4C4EA07
:101F1800C4EAC4EAC4EAC4EAC4EAC4EAC4EAC4EA49
:101F2800C4EAC4EAC4EAC4EAC4EAC4EAC4EAC4EA39
:101F3800C4EAC4EAC4EAC4EAC4EAC4EAC4EAC4EA29
:101F4800C4EAC4EAC4EAC4EAC4EAC4EAC4EAC4EA19
:101F5800C4EAC4EAC4EAC4EAC4EAC4EAC4EAC4EA09
:101F6800C4EAC4EAC4EAC4EAC4EAC4EAC4EAC4EAF9
:101F7800C4EAC4EAC4EAC4EAC4EAC4EAC4EAC4EAE9
:101F8800C4EAC4EAC4EAC4EAC4EAC4EAC4EAC4EAD9
:101F9800C4EAC4EAC4EAC4EAC4EAC4EAC4EA05FB77
:101FA8008EF405FBC4EAC4EAC4EA05EB56F6BEFFA4
:101FB800EAEB83E2A4EAC4EAC4EAC4EAC4EAC4EAEB
:101FC800C4EAC4EAC4EAC4EAC4EAA4E283E2A4E232
:101FD80067EB6CECB3F55CFFDEFF78FE51F536F687
:101FE8009EFF9DFFF5F58DEC88EBC4EA83E2A4E241
:101FF800C4EAC4EAC4EAC4EAC4EAC4EAC4EAC4EA69
:10200800C4EAC4EAC4EA83E24CEC7CFFF5F506EBCB
:10201800A4EAC4EAC4EAC4EAC4EAC4EAC4EAC4EA68
:10202800C4EAC4EAC4EAC4EAC4EAC4EAC4EAC4EA38
:10203800C4EAC4EAC4EAC4EAC4EAC4EAC4EAC4EA28
:10204800C4EAC4EAC4EAC4EAC4EAC4EAC4EAC4EA18
:10205800C4EAC4EAC4EAC4EAC4EAC4EAC4EAC4EA08
:10206800C4EAC4EAC4EAC4EAC4EAC4EAC4EAC4EAF8
:10207800C4EAC4EAC4EAC4EAC4EAC4EAC4EAC4EAE8
:10208800C4EAC4EAC4EAC4EAC4EAC4EAC4EAC4EAD8
:10209800C4EAC4EAC4EAC4EAC4EAC4EAC4EA05FB76
:1020A8008EF405FBC4EAC4EAA4E2EAEB3BFF78FE3F
:1020B80027EBA4E2C4EAC4EAC4EAC4EAC4EAC4EA6C
:1020C800C4EAC4EAC4EAC4EAC4EAC4EAC4EAC4EA98
:1020D800A4EA83E2E5EACAEB36F6FFFFFFFFFFFF5B
:1020E80078FE0BECE5EA83E2A4E2C4EAC4EAC4EAB7
:1020F800C4EAC4EAC4EAC4EAC4EAC4EAC4EAC4EA68
:10210800C4EAC4EAC4EAA4EA47EBD9FE1BFF67EBBA
:10211800A3E2C4EAC4EAC4EAC4EAC4EAC4EAC4EA70
:10212800C4EAC4EAC4EAC4EAC4EAC4EAC4EAC4EA37
:10213800C4EAC4EAC4EAC4EAC4EAC4EAC4EAC4EA27
:10214800C4EAC4EAC4EAC4EAC4EAC4EAC4EAC4EA17
:10215800C4EAC4EAC4EAC4EAC4EAC4EAC4EAC4EA07
:10216800C4EAC4EAC4EAC4EAC4EAC4EAC4EAC4EAF7
:10217800C4EAC4EAC4EAC4EAC4EAC4EAC4EAC4EAE7
:10218800C4EAC4EAC4EAC4EAC4EAC4EAC4EAC4EAD7
:10219800C4EAC4EAC4EAC4EAC4EAC4EAC4EA05FB75
:1021A8008EF405FBC4EAC4EAA3E2F0F4DFFF10F5FD
:1021B800C4EAC4EAC4EAC4EAC4EAC4EAC4EAC4EAA7
:1021C800C4EAC4EAC4EAC4EAC4EAC4EAC4EAC4EA97
:1021D800C4EAA4EAC4EA2CECFAFEFFFF7CFFDEFFA7
:1021E8003BFF6DECC4EAA4EAC4EAC4EAC4EAC4EA60
:1021F800C4EAC4EAC4EAC4EAC4EAC4EAC4EAC4EA67
:10220800C4EAC4EAC4EAC4EAC4EA16F6BEFFEAEBC2
:10221800A4E2C4EAC4EAC4EAC4EAC4EAC4EAC4EA6E
:10222800C4EAC4EAC4EAC4EAC4EAC4EAC4EAC4EA36
:10223800C4EAC4EAC4EAC4EAC4EAC4EAC4EAC4EA26
:10224800C4EAC4EAC4EAC4EAC4EAC4EAC4EAC4EA16
:10225800C4EAC4EAC4EAC4EAC4EAC4EAC4EAC4EA06
:10226800C4EAC4EAC4EAC4EAC4EAC4EAC4EAC4EAF6
:10227800C4EAC4EAC4EAC4EAC4EAC4EAC4EAC4EAE6
:10228800C4EAC4EAC4EAC4EAC4EAC4EAC4EAC4EAD6
:10229800C4EAC4EAC4EAC4EAC4EAC4EAC4EA05FB74
:1022A8008EF405FBC4EAC4EAC4EAD4F5FFFF2BECBC
:1022B80083E2C4EAC4EAC4EAC4EAC4EAC4EAC4EAEF
:1022C800C4EAC4EAC4EAC4EAC4EAC4EAC4EAC4EA96
:1022D800A4EA05EB10F57DFF9DFF72F5A9EB30F53B
:1022E8005CFF9DFF72F526EBA4E2C4EAC4EAC4EAE7
:1022F800C4EAC4EAC4EAC4EAC4EAC4EAC4EAC4EA66
:10230800C4EAC4EAC4EAC4EAA4EA51F59DFFAEF4FB
:10231800C4EAC4EAC4EAC4EAC4EAC4EAC4EAC4EA45
:10232800C4EAC4EAC4EAC4EAC4EAC4EAC4EAC4EA35
:10233800C4EAC4EAC4EAC4EAC4EAC4EAC4EAC4EA25
:10234800C4EAC4EAC4EAC4EAC4EAC4EAC4EAC4EA15
:10235800C4EAC4EAC4EAC4EAC4EAC4EAC4EAC4EA05
:10236800C4EAC4EAC4EAC4EAC4EAC4EAC4EAC4EAF5
:10237800C4EAC4EAC4EAC4EAC4EAC4EAC4EAC4EAE5
:10238800C4EAC4EAC4EAC4EAC4EAC4EAC4EAC4EAD5
:10239800C4EAC4EAC4EAC4EAC4EAC4EAC4EA05FB73
:1023A8008EF405FBC4EAA4E247EB98FE1AFF88EB1B
:1023B800A3E2C4EAC4EAC4EAC4EAC4EAC4EAC4EACE
:1023C800C4EAC4EAC4EAC4EAC4EAC4EAC4EAA4EAB5
:1023D80026EB72F5DEFF1BFF8DF4E5EAA3E2C5EA02
:1023E8002CECD9FEDFFFF4F547EBA4E2C4EAC4EA1B
:1023F800C4EAC4EAC4EAC4EAC4EAC4EAC4EAC4EA65
:10240800C4EAC4EAC4EAC4EAA4EA8DF45CFF72F53B
:10241800E5EAC4EAC4EAC4EAC4EAC4EAC4EAC4EA23
:10242800C4EAC4EAC4EAC4EAC4EAC4EAC4EAC4EA34
:10243800C4EAC4EAC4EAC4EAC4EAC4EAC4EAC4EA24
:10244800C4EAC4EAC4EAC4EAC4EAC4EAC4EAC4EA14
:10245800C4EAC4EAC4EAC4EAC4EAC4EAC4EAC4EA04
:10246800C4EAC4EAC4EAC4EAC4EAC4EAC4EAC4EAF4
:10247800C4EAC4EAC4EAC4EAC4EAC4EAC4EAC4EAE4
:10248800C4EAC4EAC4EAC4EAC4EAC4EAC4EAC4EAD4
:10249800C4EAC4EAC4EAC4EAC4EAC4EAC4EA05FB72
:1024A8008EF405FBC4EA83E2CAEB3BFF36F626EB63
:1024B800A4EAC4EAC4EAC4EAC4EAC4EAC4EAC4EAC4
:1024C800C4EAC4EAC4EAC4EAC4EAC4EAA4EA06EB71
:1024D80093F5FFFFD9FEEAEBA4E2A4EAC4EAC4EA52
:1024E800A4EAA9EB77FEFFFFF5F547EBA4EAC4EAF7
:1024F800C4EAC4EAC4EAC4EAC4EAC4EAC4EAC4EA64
:10250800C4EAC4EAC4EAC4EAA4EAEAEB3BFFF5F584
:1025180005EBA4EAC4EAC4EAC4EAC4EAC4EAC4EA21
:10252800C4EAC4EAC4EAC4EAC4EAC4EAC4EAC4EA33
:10253800C4EAC4EAC4EAC4EAC4EAC4EAC4EAC4EA23
:10254800C4EAC4EAC4EAC4EAC4EAC4EAC4EAC4EA13
:10255800C4EAC4EAC4EAC4EAC4EAC4EAC4EAC4EA03
:10256800C4EAC4EAC4EAC4EAC4EAC4EAC4EAC4EAF3
:10257800C4EAC4EAC4EAC4EAC4EAC4EAC4EAC4EAE3
:10258800C4EAC4EAC4EAC4EAC4EAC4EAC4EAC4EAD3
:10259800C4EAC4EAC4EAC4EAC4EAC4EAC4EA05FB71
:1025A8008EF405FBC4EA83E24CECBEFF93F5E5EA42
:1025B800C4EAC4EAC4EAC4EAC4EAC4EAC4EAC4EAA3
:1025C800C4EAC4EAC4EAC4EAC4EAA4EAE5EA72F5D9
:1025D800DFFF98FEC9EBA4EAC4EAC4EAC4EAC4EA85
:1025E800C4EAA3E268EB36F6FFFFF4F526EBA4EAAB
:1025F800C4EAC4EAC4EAC4EAC4EAC4EAC4EAC4EA63
:10260800C4EAC4EAC4EAC4EAA4EA88EB1BFF78FE79
:1026180006EBA4EAC4EAC4EAC4EAC4EAC4EAC4EA1F
:10262800C4EAC4EAC4EAC4EAC4EAC4EAC4EAC4EA32
:10263800C4EAC4EAC4EAC4EAC4EAC4EAC4EAC4EA22
:10264800C4EAC4EAC4EAC4EAC4EAC4EAC4EAC4EA12
:10265800C4EAC4EAC4EAC4EAC4EAC4EAC4EAC4EA02
:10266800C4EAC4EAC4EAC4EAC4EAC4EAC4EAC4EAF2
:10267800C4EAC4EAC4EAC4EAC4EAC4EAC4EAC4EAE2
:10268800C4EAC4EAC4EAC4EAC4EAC4EAC4EAC4EAD2
:10269800C4EAC4EAC4EAC4EAC4EAC4EAC4EA05FB70
:1026A8008EF405FBC4EA63E28EF4FFFF30F5A4EA7A
:1026B800C4EAC4EAC4EAC4EAC4EAC4EAC4EAC4EAA2
:1026C800C4EAC4EAC4EAC4EAC4EAC4EAF0F4DEFF2D
:1026D800D9FEC9EBA4EAC4EAC4EAC4EAC4EAC4EA73
:1026E800C4EAC4EAA3E268EB57F6FFFF72F5E5EA2D
:1026F800A4EAC4EAC4EAC4EAC4EAC4EAC4EAC4EA82
:10270800C4EAC4EAC4EAC4EAA4EA47EB1BFFD9FE58
:1027180026EBA4E2C4EAC4EAC4EAC4EAC4EAC4EA06
:10272800C4EAC4EAC4EAC4EAC4EAC4EAC4EAC4EA31
:10273800C4EAC4EAC4EAC4EAC4EAC4EAC4EAC4EA21
:10274800C4EAC4EAC4EAC4EAC4EAC4EAC4EAC4EA11
:10275800C4EAC4EAC4EAC4EAC4EAC4EAC4EAC4EA01
:10276800C4EAC4EAC4EAC4EAC4EAC4EAC4EAC4EAF1
:10277800C4EAC4EAC4EAC4EAC4EAC4EAC4EAC4EAE1
:10278800C4EAC4EAC4EAC4EAC4EAC4EAC4EAC4EAD1
:10279800C4EAC4EAC4EAC4EAC4EAC4EAC4EA05FB6F
:1027A8008EF405FBC4EA62E2CFF4FFFFCFF483E2C4
:1027B800C4EAC4EAC4EAC4EAC4EAC4EAC4EAC4EAA1
:1027C800C4EAC4EAC4EAC4EAA4E24CEC7CFF3BFFD6
:1027D8000BECA4E2C4EAC4EAC4EAC4EAC4EAC4EA60
:1027E800C4EAC4EAC4EAA3E2A9EBD9FEBEFFAEF488
:1027F800C4EAC4EAC4EAC4EAC4EAC4EAC4EAC4EA61
:10280800C4EAC4EAC4EAC4EAA4EA26EB1AFFFAFE58
:1028180026EBA4E2C4EAC4EAC4EAC4EAC4EAC4EA05
:10282800C4EAC4EAC4EAC4EAC4EAC4EAC4EAC4EA30
:10283800C4EAC4EAC4EAC4EAC4EAC4EAC4EAC4EA20
:10284800C4EAC4EAC4EAC4EAC4EAC4EAC4EAC4EA10
:10285800C4EAC4EAC4EAC4EAC4EAC4EAC4EAC4EA00
:10286800C4EAC4EAC4EAC4EAC4EAC4EAC4EAC4EAF0
:10287800C4EAC4EAC4EAC4EAC4EAC4EAC4EAC4EAE0
:10288800C4EAC4EAC4EAC4EAC4EAC4EAC4EAC4EAD0
:10289800C4EAC4EAC4EAC4EAC4EAC4EAC4EA05FB6E
:1028A8008EF405FBC4EA62E2F0F4FFFFAEF483E2C3
:1028B800C4EAC4EAC4EAC4EAC4EAC4EAC4EAC4EAA0
:1028C800C4EAC4EAC4EAA4E288EBB9FEBEFF8EF407
:1028D800A4EAC4EAC4EAC4EAC4EAC4EAC4EAC4EAA0
:1028E800C4EAC4EAC4EAC4EAA4E22BEC5CFF3BFFF6
:1028F800CAEBA4EAC4EAC4EAC4EAC4EAC4EAC4EA79
:10290800C4EAC4EAC4EAC4EAA4EA05EBFAFE1AFF78
:1029180026EBA4E2C4EAC4EAC4EAC4EAC4EAC4EA04
:10292800C4EAC4EAC4EAC4EAC4EAC4EAC4EAC4EA2F
:10293800C4EAC4EAC4EAC4EAC4EAC4EAC4EAC4EA1F
:10294800C4EAC4EAC4EAC4EAC4EAC4EAC4EAC4EA0F
:10295800C4EAC4EAC4EAC4EAC4EAC4EAC4EAC4EAFF
:10296800C4EAC4EAC4EAC4EAC4EAC4EAC4EAC4EAEF
:10297800C4EAC4EAC4EAC4EAC4EAC4EAC4EAC4EADF
:10298800C4EAC4EAC4EAC4EAC4EAC4EAC4EAC4EACF
:10299800C4EAC4EAC4EAC4EAC4EAC4EAC4EA05FB6D
:1029A8008EF405FBC4EA62E210F5FFFF8EF483E2C1
:1029B800C4EAC4EAC4EAC4EAC4EAC4EAC4EAC4EA9F
:1029C800C4EAC4EAC4EAE5EA93F5FFFF72F5E5EA6A
:1029D800A4E2C4EAC4EAC4EAC4EAC4EAC4EAC4EAA7
:1029E800C4EAC4EAC4EAC4EAC4EAC4EA10F5DEFFE9
:1029F80016F605EBA4EAC4EAC4EAC4EAC4EAC4EADF
:102A0800C4EAC4EAC4EAC4EAA4EA06EBFAFEFAFE97
:102A180026EBA4E2C4EAC4EAC4EAC4EAC4EAC4EA03
:102A2800C4EAC4EAC4EAC4EAC4EAC4EAC4EAC4EA2E
:102A3800C4EAC4EAC4EAC4EAC4EAC4EAC4EAC4EA1E
:102A4800C4EAC4EAC4EAC4EAC4EAC4EAC4EAC4EA0E
:102A5800C4EAC4EAC4EAC4EAC4EAC4EAC4EAC4EAFE
:102A6800C4EAC4EAC4EAC4EAC4EAC4EAC4EAC4EAEE
:102A7800C4EAC4EAC4EAC4EAC4EAC4EAC4EAC4EADE
:102A8800C4EAC4EAC4EAC4EAC4EAC4EAC4EAC4EACE
:102A9800C4EAC4EAC4EAC4EAC4EAC4EAC4EA05FB6C
:102AA8008EF405FBC4EA62E2F0F4FFFF8EF483E2E1
:102AB800C4EAC4EAC4EAC4EAC4EAC4EAC4EAC4EA9E
:102AC800C4EAC4EAA3E24CEC9DFFB8FE68EBA3E2BB
:102AD800C4EAC4EAC4EAC4EAC4EAC4EAC4EAC4EA7E
:102AE800C4EAC4EAC4EAC4EAC4EAA4EA06EB57FEA4
:102AF800BEFFAEF4A4EAC4EAC4EAC4EAC4EAC4EA7B
:102B0800C4EAC4EAC4EAC4EAA4EA47EB1AFFD9FE55
:102B180006EBA4E2C4EAC4EAC4EAC4EAC4EAC4EA22
:102B2800C4EAC4EAC4EAC4EAC4EAC4EAC4EAC4EA2D
:102B3800C4EAC4EAC4EAC4EAC4EAC4EAC4EAC4EA1D
:102B4800C4EAC4EAC4EAC4EAC4EAC4EAC4EAC4EA0D
:102B5800C4EAC4EAC4EAC4EAC4EAC4EAC4EAC4EAFD
:102B6800C4EAC4EAC4EAC4EAC4EAC4EAC4EAC4EAED
:102B7800C4EAC4EAC4EAC4EAC4EAC4EAC4EAC4EADD
:102B8800C4EAC4EAC4EAC4EAC4EAC4EAC4EAC4EACD
:102B9800C4EAC4EAC4EAC4EAC4EAC4EAC4EA05FB6B
:102BA8008EF405FBC4EA62E2EFF4FFFFAEF483E2C1
:102BB800C4EAC4EAC4EAC4EAC4EAC4EAC4EAC4EA9D
:102BC800C4EAA4EA26EB36F6BEFF8DF4A3E2C4EA13
:102BD800C4EAC4EAC4EAC4EAC4EAC4EAC4EAC4EA7D
:102BE800C4EAC4EAC4EAC4EAC4EAC4EAA4EA0BEC44
:102BF8009DFFB9FE47EBA4EAC4EAC4EAC4EAC4EA02
:102C0800C4EAC4EAC4EAC4EAA4EA88EB1BFF78FE73
:102C180006EBA4EAC4EAC4EAC4EAC4EAC4EAC4EA19
:102C2800C4EAC4EAC4EAC4EAC4EAC4EAC4EAC4EA2C
:102C3800C4EAC4EAC4EAC4EAC4EAC4EAC4EAC4EA1C
:102C4800C4EAC4EAC4EAC4EAC4EAC4EAC4EAC4EA0C
:102C5800C4EAC4EAC4EAC4EAC4EAC4EAC4EAC4EAFC
:102C6800C4EAC4EAC4EAC4EAC4EAC4EAC4EAC4EAEC
:102C7800C4EAC4EAC4EAC4EAC4EAC4EAC4EAC4EADC
:102C8800C4EAC4EAC4EAC4EAC4EAC4EAC4EAC4EACC
:102C9800C4EAC4EAC4EAC4EAC4EAC4EAC4EA05FB6A
:102CA8008EF405FBC4EA62E2AEF4FFFFF0F4A3E29F
:102CB800C4EAC4EAC4EAC4EAC4EAC4EAC4EAC4EA9C
:102CC800C4EAA4E26DECDEFF36F626EBA4EAC4EA19
:102CD800C4EAC4EAC4EAC4EAC4EAC4EAC4EAC4EA7C
:102CE800C4EAC4EAC4EAC4EAC4EAC4EAA4EAE5EA6B
:102CF800B4F5BEFF10F5A4EAC4EAC4EAC4EAC4EA1B
:102D0800C4EAC4EAC4EAC4EAA4EAEAEB3BFF36F63A
:102D180005EBA4EAC4EAC4EAC4EAC4EAC4EAC4EA19
:102D2800C4EAC4EAC4EAC4EAC4EAC4EAC4EAC4EA2B
:102D3800C4EAC4EAC4EAC4EAC4EAC4EAC4EAC4EA1B
:102D4800C4EAC4EAC4EAC4EAC4EAC4EAC4EAC4EA0B
:102D5800C4EAC4EAC4EAC4EAC4EAC4EAC4EAC4EAFB
:102D6800C4EAC4EAC4EAC4EAC4EAC4EAC4EAC4EAEB
:102D7800C4EAC4EAC4EAC4EAC4EAC4EAC4EAC4EADB
:102D8800C4EAC4EAC4EAC4EAC4EAC4EAC4EAC4EACB
:102D9800C4EAC4EAC4EAC4EAC4EAC4EAC4EA05FB69
:102DA8008EF405FBC4EA83E26DECDFFF72F5C4EA3A
:102DB800C4EAC4EAC4EAC4EAC4EAC4EAC4EAC4EA9B
:102DC800A4EA26EB16F69DFF6DF4A3E2C4EAC4EA72
:102DD800C4EAC4EAC4EAC4EAC4EAC4EAC4EAC4EA7B
:102DE800C4EAC4EAC4EAC4EAC4EAC4EAC4EAA3E294
:102DF800EAEB9DFF98FE27EBA4EAC4EAC4EAC4EA1A
:102E0800C4EAC4EAC4EAC4EAA4EA6DEC5CFF93F538
:102E1800E5EAC4EAC4EAC4EAC4EAC4EAC4EAC4EA19
:102E2800C4EAC4EAC4EAC4EAC4EAC4EAC4EAC4EA2A
:102E3800C4EAC4EAC4EAC4EAC4EAC4EAC4EAC4EA1A
:102E4800C4EAC4EAC4EAC4EAC4EAC4EAC4EAC4EA0A
:102E5800C4EAC4EAC4EAC4EAC4EAC4EAC4EAC4EAFA
:102E6800C4EAC4EAC4EAC4EAC4EAC4EAC4EAC4EAEA
:102E7800C4EAC4EAC4EAC4EAC4EAC4EAC4EAC4EADA
:102E8800C4EAC4EAC4EAC4EAC4EAC4EAC4EAC4EACA
:102E9800C4EAC4EAC4EAC4EAC4EAC4EAC4EA05FB68
:102EA8008EF405FBC4EA83E20BEC7CFFF5F506EB38
:102EB800A4EAC4EAC4EAC4EAC4EAC4EAC4EAC4EABA
:102EC800A3EAEAEB9DFF57FE06EBC4EAC4EAC4EAAC
:102ED800C4EAC4EAC4EAC4EAC4EAC4EAC4EAC4EA7A
:102EE800C4EAC4EAC4EAC4EAC4EAC4EAC4EAA4EA8A
:102EF80006EBF4F59DFF8DF4A3E2C4EAC4EAC4EA44
:102F0800C4EAC4EAC4EAC4EAA4EAF0F47DFF10F50E
:102F1800C4EAC4EAC4EAC4EAC4EAC4EAC4EAC4EA39
:102F2800C4EAC4EAC4EAC4EAC4EAC4EAC4EAC4EA29
:102F3800C4EAC4EAC4EAC4EAC4EAC4EAC4EAC4EA19
:102F4800C4EAC4EAC4EAC4EAC4EAC4EAC4EAC4EA09
:102F5800C4EAC4EAC4EAC4EAC4EAC4EAC4EAC4EAF9
:102F6800C4EAC4EAC4EAC4EAC4EAC4EAC4EAC4EAE9
:102F7800C4EAC4EAC4EAC4EAC4EAC4EAC4EAC4EAD9
:102F8800C4EAC4EAC4EAC4EAC4EAC4EAC4EAC4EAC9
:102F9800C4EAC4EAC4EAC4EAC4EAC4EAC4EA05FB67
:102FA8008EF405FBC4EAA3E2A9EBFAFE98FE67EBF0
:102FB800A4E2C4EAC4EAC4EAC4EAC4EAC4EAC4EAC1
:102FC800E5EA51F5BEFF10F5A3E2C4EAC4EAC4EA93
:102FD800C4EAC4EAC4EAC4EAC4EAC4EAC4EAC4EA79
:102FE800C4EAC4EAC4EAC4EAC4EAC4EAC4EAC4EA69
:102FF800A3E24CECDFFFD4F5E5EAC4EAC4EAC4EA8C
:10300800C4EAC4EAC4EAC4EAC4EAB4F5BEFF4CECB4
:10301800A4EAC4EAC4EAC4EAC4EAC4EAC4EAC4EA58
:10302800C4EAC4EAC4EAC4EAC4EAC4EAC4EAC4EA28
:10303800C4EAC4EAC4EAC4EAC4EAC4EAC4EAC4EA18
:10304800C4EAC4EAC4EAC4EAC4EAC4EAC4EAC4EA08
:10305800C4EAC4EAC4EAC4EAC4EAC4EAC4EAC4EAF8
:10306800C4EAC4EAC4EAC4EAC4EAC4EAC4EAC4EAE8
:10307800C4EAC4EAC4EAC4EAC4EAC4EAC4EAC4EAD8
:10308800C4EAC4EAC4EAC4EAC4EAC4EAC4EAC4EAC8
:10309800C4EAC4EAC4EAC4EAC4EAC4EAC4EA05FB66
:1030A8008EF405FBC4EAA4E226EB57FE7CFFC9EBCD
:1030B80083E2C4EAC4EAC4EAC4EAC4EAC4EAA4E209
:1030C80026EBD9FE1AFF88EB83E2A4EAA4EAA4EA75
:1030D800C4EAC4EAA4EAC4EAC4EAC4EAC4EAA4EAB8
:1030E800A4EAC4EAC4EAC4EAC4EAA4EAA4EAC4EAC8
:1030F800A3E268EBD9FEDAFEA9EBA4E2C4EAC4EACB
:10310800C4EAC4EAC4EAC4EAE5EA77FE9DFFA8EB8C
:10311800A3E2C4EAC4EAC4EAC4EAC4EAC4EAC4EA60
:10312800C4EAC4EAC4EAC4EAC4EAC4EAC4EAC4EA27
:10313800C4EAC4EAC4EAC4EAC4EAC4EAC4EAC4EA17
:10314800C4EAC4EAC4EAC4EAC4EAC4EAC4EAC4EA07
:10315800C4EAC4EAC4EAC4EAC4EAC4EAC4EAC4EAF7
:10316800C4EAC4EAC4EAC4EAC4EAC4EAC4EAC4EAE7
:10317800C4EAC4EAC4EAC4EAC4EAC4EAC4EAC4EAD7
:10318800C4EAC4EAC4EAC4EAC4EAC4EAC4EAC4EAC7
:10319800C4EAC4EAC4EAC4EAC4EAC4EAC4EA05FB65
:1031A8008EF405FBC4EAC4EAA4E293F5FFFF4CECF5
:1031B80083E2C4EAC4EAC4EAC4EAC4EAC4EAA4EA00
:1031C800EAEB9DFF56F605EBE5EA06EB05EBE5EACB
:1031D800E5EAE5EA05EBE5EAC4EAC4EAE5EA06EB6E
:1031E80006EBE5EAC4EAC4EAC4EA05EB05EBC4EA7F
:1031F800A4EAE5EA72F5BEFF8DEC83E2C4EAC4EA0C
:10320800C4EAC4EAC4EAA4EA88EBFAFEB9FE47EBCA
:10321800A4E2C4EAC4EAC4EAC4EAC4EAC4EAC4EA5E
:10322800C4EAC4EAC4EAC4EAC4EAC4EAC4EAC4EA26
:10323800C4EAC4EAC4EAC4EAC4EAC4EAC4EAC4EA16
:10324800C4EAC4EAC4EAC4EAC4EAC4EAC4EAC4EA06
:10325800C4EAC4EAC4EAC4EAC4EAC4EAC4EAC4EAF6
:10326800C4EAC4EAC4EAC4EAC4EAC4EAC4EAC4EAE6
:10327800C4EAC4EAC4EAC4EAC4EAC4EAC4EAC4EAD6
:10328800C4EAC4EAC4EAC4EAC4EAC4EAC4EAC4EAC6
:10329800C4EAC4EAC4EAC4EAC4EAC4EAC4EA05FB64
:1032A8008EF405FBC4EAC4EA83E2CFF4BEFF52F50C
:1032B800E5EAC4EAC4EAC4EAC4EAC4EAC4EAC4EA75
:1032C800EFF47DFF93F5EFF415F615F615F6D4F542
:1032D80031F593F5D4F50BECA4E226EB31F516F6AF
:1032E80036F631F506EBA4E26DF416F615F62CEC7D
:1032F800C4EA83E28DF4FFFF52F5A4EAC4EAC4EA03
:10330800C4EAC4EAC4EAA4E28DF47DFF93F505EBB0
:10331800A4EAC4EAC4EAC4EAC4EAC4EAC4EAC4EA55
:10332800C4EAC4EAC4EAC4EAC4EAC4EAC4EAC4EA25
:10333800C4EAC4EAC4EAC4EAC4EAC4EAC4EAC4EA15
:10334800C4EAC4EAC4EAC4EAC4EAC4EAC4EAC4EA05
:10335800C4EAC4EAC4EAC4EAC4EAC4EAC4EAC4EAF5
:10336800C4EAC4EAC4EAC4EAC4EAC4EAC4EAC4EAE5
:10337800C4EAC4EAC4EAC4EAC4EAC4EAC4EAC4EAD5
:10338800C4EAC4EAC4EAC4EAC4EAC4EAC4EAC4EAC5
:10339800C4EAC4EAC4EAC4EAC4EAC4EAC4EA05FB63
:1033A8008EF405FBC4EAC4EAA4E2CAEB1AFFB9FE2C
:1033B80047EBA3E2C4EAC4EAC4EAC4EAA4EAE5EA39
:1033C800F5F53BFFCEF456F6FFFF1BFF98FEFAFE1D
:1033D800BEFFFFFF9DFFCFF483E247EBD9FEFFFF5F
:1033E8005CFF9EFF31F54CEC3BFF9DFF9DFF3BFFD3
:1033F8004CEC83E2EAEB5CFF36F626EBA4EAC4EA7F
:10340800C4EAC4EAC4EAA4E293F5FFFF6DF4A4E2B7
:10341800C4EAC4EAC4EAC4EAC4EAC4EAC4EAC4EA34
:10342800C4EAC4EAC4EAC4EAC4EAC4EAC4EAC4EA24
:10343800C4EAC4EAC4EAC4EAC4EAC4EAC4EAC4EA14
:10344800C4EAC4EAC4EAC4EAC4EAC4EAC4EAC4EA04
:10345800C4EAC4EAC4EAC4EAC4EAC4EAC4EAC4EAF4
:10346800C4EAC4EAC4EAC4EAC4EAC4EAC4EAC4EAE4
:10347800C4EAC4EAC4EAC4EAC4EAC4EAC4EAC4EAD4
:10348800C4EAC4EAC4EAC4EAC4EAC4EAC4EAC4EAC4
:10349800C4EAC4EAC4EAC4EAC4EAC4EAC4EA05FB62
:1034A8008EF405FBC4EAC4EAC4EAE5EA56F6DEFF90
:1034B8000BECA4E2C4EAC4EAC4EAC4EAA4EA06EB50
:1034C800D9FE1BFFEAEB56F6FFFF36F6F0F4F4F5EB
:1034D800FFFFFFFFBEFFCFF483E247EBFAFEDFFFFB
:1034E80010F5B9FE9DFF5CFF9DFF8DEC6DEC3BFF79
:1034F8005CFF4CEC67EB98FED9FEA9EBA4E2C4EAAA
:10350800C4EAC4EAA4EA47EB98FE5CFFA9EBA3E28D
:10351800C4EAC4EAC4EAC4EAC4EAC4EAC4EAC4EA33
:10352800C4EAC4EAC4EAC4EAC4EAC4EAC4EAC4EA23
:10353800C4EAC4EAC4EAC4EAC4EAC4EAC4EAC4EA13
:10354800C4EAC4EAC4EAC4EAC4EAC4EAC4EAC4EA03
:10355800C4EAC4EAC4EAC4EAC4EAC4EAC4EAC4EAF3
:10356800C4EAC4EAC4EAC4EAC4EAC4EAC4EAC4EAE3
:10357800C4EAC4EAC4EAC4EAC4EAC4EAC4EAC4EAD3
:10358800C4EAC4EAC4EAC4EAC4EAC4EAC4EAC4EAC3
:10359800C4EAC4EAC4EAC4EAC4EAC4EAC4EA05FB61
:1035A8008EF405FBC4EAC4EAC4EAA4EA10F5BEFF37
:1035B80093F5E5EAA4EAC4EAC4EAC4EAA4E247EB5C
:1035C8005CFFB9FE88EB36F6FFFF5CFFFAFED9FE1A
:1035D800B8FE7DFFBEFFCEF462E226EBFAFEDFFF07
:1035E800EAEB0BEC5CFFFFFF51F5CAEB2BEC8DF41B
:1035F800DAFE3BFFAEF4F5F57CFF0BECA3E2C4EA80
:10360800C4EAC4EA83E26DEC9DFFD4F506EBA4EAB4
:10361800C4EAC4EAC4EAC4EAC4EAC4EAC4EAC4EA32
:10362800C4EAC4EAC4EAC4EAC4EAC4EAC4EAC4EA22
:10363800C4EAC4EAC4EAC4EAC4EAC4EAC4EAC4EA12
:10364800C4EAC4EAC4EAC4EAC4EAC4EAC4EAC4EA02
:10365800C4EAC4EAC4EAC4EAC4EAC4EAC4EAC4EAF2
:10366800C4EAC4EAC4EAC4EAC4EAC4EAC4EAC4EAE2
:10367800C4EAC4EAC4EAC4EAC4EAC4EAC4EAC4EAD2
:10368800C4EAC4EAC4EAC4EAC4EAC4EAC4EAC4EAC2
:10369800C4EAC4EAC4EAC4EAC4EAC4EAC4EA05FB60
:1036A8008EF405FBC4EAC4EAC4EAA4EA89EB3BFF4A
:1036B8003BFF68EBA4E2C4EAC4EAC4EAA4E2C9EBAB
:1036C8005CFF36F688EB57F6FFFF92F5C9EBA9EBDE
:1036D80088EBF4F5FFFF57FE4CEC31F59DFF9DFF9D
:1036E80088EB06EB57FE5CFF0BEC8DF472F547EBAD
:1036F80072F5FFFF56F6B3F5DFFF4CEC83E2C4EA40
:10370800C4EAC4EAE5EAB3F5DFFF6DECA3E2C4EA74
:10371800C4EAE5EAE5EAE5EAE5EAE5EAE5EAE5EA4A
:10372800E5EAE5EAE5EAA4E2A3E2C4EAC4EAC4EA0F
:10373800C4EAC4EAC4EAC4EAC4EAC4EAC4EAC4EA11
:10374800C4EAC4EAC4EAC4EAC4EAC4EAC4EAC4EA01
:10375800C4EAC4EAC4EAC4EAC4EAC4EAC4EAC4EAF1
:10376800C4EAC4EAC4EAC4EAC4EAC4EAC4EAC4EAE1
:10377800C4EAC4EAC4EAC4EAC4EAC4EAC4EAC4EAD1
:10378800C4EAC4EAC4EAC4EAC4EAC4EAC4EAC4EAC1
:10379800C4EAC4EAC4EAC4EAC4EAC4EAC4EA05FB5F
:1037A8008EF405FBC4EAC4EAC4EAC4EAC4EAD4F560
:1037B800DEFFF0F4C4EAC4EAC4EAC4EAC4EA2BECC3
:1037C8005CFFD4F547EB72F5D9FE2BEC62E2A3E27D
:1037D800A4E20BECB9FEBEFF7DFF9EFF5CFF51F536
:1037E800E5EA26EB57F65CFF2BEC06EBC9EB31F567
:1037F8001BFFFFFF36F672F5FFFF8DF483E2C4EA84
:10380800C4EAA3E2CAEB3BFFB9FE68EBA3E2A4E279
:1038180068EBD4F536F636F636F636F636F636F67C
:1038280036F636F615F6B4F5AEF447EBA4EAC4EA74
:10383800C4EAC4EAC4EAC4EAC4EAC4EAC4EAC4EA10
:10384800C4EAC4EAC4EAC4EAC4EAC4EAC4EAC4EA00
:10385800C4EAC4EAC4EAC4EAC4EAC4EAC4EAC4EAF0
:10386800C4EAC4EAC4EAC4EAC4EAC4EAC4EAC4EAE0
:10387800C4EAC4EAC4EAC4EAC4EAC4EAC4EAC4EAD0
:10388800C4EAC4EAC4EAC4EAC4EAC4EAC4EAC4EAC0
:10389800C4EAC4EAC4EAC4EAC4EAC4EAC4EA05FB5E
:1038A8008EF405FBC4EAC4EAC4EAC4EAA4EAEAEB73
:1038B8007CFFFAFE67EBA4EAC4EAC4EAC4EA4CEC6B
:1038C8005CFF93F5E5EA47EBA9EB26EBC4EAC4EA0B
:1038D800C4EAC4EA88EB4CECAEF48DECEAEB06EBF8
:1038E800A4EAE5EA0BEC6DEC47EBA3E2E5EA0BECA6
:1038F8008EF48DF4A9EB10F5FFFFAEF483E2C4EA71
:10390800C4EAC4EA51F5FFFF10F5A4E2C4EA83E271
:10391800EAEBBEFFFFFFFFFFFFFFFFFFFFFFFFFF19
:10392800FFFFFFFFFFFFFFFF9EFF36F6A9EBA4EAAC
:10393800C4EAC4EAC4EAC4EAC4EAC4EAC4EAC4EA0F
:10394800C4EAC4EAC4EAC4EAC4EAC4EAC4EAC4EAFF
:10395800C4EAC4EAC4EAC4EAC4EAC4EAC4EAC4EAEF
:10396800C4EAC4EAC4EAC4EAC4EAC4EAC4EAC4EADF
:10397800C4EAC4EAC4EAC4EAC4EAC4EAC4EAC4EACF
:10398800C4EAC4EAC4EAC4EAC4EAC4EAC4EAC4EABF
:10399800C4EAC4EAC4EAC4EAC4EAC4EAC4EA05FB5D
:1039A8008EF405FBC4EAC4EAC4EAC4EAC4EAE5EA58
:1039B800F5F5DEFF31F5C4EAC4EAC4EAC4EA6DEC01
:1039C8007CFF93F5C5EAA3E2A3E2C4EAC4EAC4EA29
:1039D800C4EAC4EAA4E283E283E283E283E2C4EABB
:1039E800C4EAC4EAA4E2A4E2C4EAC4EAC4EAA3E2D8
:1039F80083E283E262E2F0F4FFFFCFF483E2C4EAF9
:103A0800A3E2A9EB3BFFFAFEA9EBA3E2C4EA83E237
:103A1800CAEB7DFFFFFFFFFFFFFFFFFFFFFFFFFF79
:103A2800FFFFFFFFFFFFFFFFFFFFFFFF36FE26EB55
:103A3800A4EAC4EAC4EAC4EAC4EAC4EAC4EAC4EA2E
:103A4800C4EAC4EAC4EAC4EAC4EAC4EAC4EAC4EAFE
:103A5800C4EAC4EAC4EAC4EAC4EAC4EAC4EAC4EAEE
:103A6800C4EAC4EAC4EAC4EAC4EAC4EAC4EAC4EADE
:103A7800C4EAC4EAC4EAC4EAC4EAC4EAC4EAC4EACE
:103A8800A4EAA4EAA4E2A4E2A4E2A4E2C4EAC4EA9E
:103A9800C4EAC4EAC4EAC4EAC4EAC4EAC4EA05FB5C
:103AA8008EF405FBC4EAC4EAC4EAC4EAC4EAA4EA98
:103AB800CAEB7CFF1BFFA9EBA4EAC4EAC4EA6DECDD
:103AC8005CFFB3F5E5EAC4EAC4EAC4EAC4EAC4EAB6
:103AD800C4EAC4EAC4EAC4EAC4EAC4EAC4EAC4EA6E
:103AE800C4EAC4EAC4EAC4EAC4EAC4EAC4EAC4EA5E
:103AF800C4EAC4EA83E210F5FFFFAEF483E2A4EA65
:103B0800E5EA93F5DFFF31F5C4E2C4EAC4EA83E2EB
:103B1800CAEB7DFFFFFFFFFFFFFFFFFF9DFF5CFF7D
:103B28007CFFDEFFFFFFFFFFFFFFFFFF9DFF4CEC69
:103B3800C4EAC4EAC4EAA3E2A3E2A3E2A3E2A4E2D9
:103B4800C4EAC4EAC4EAC4EAA4E2A3E2A3E2A3E2A0
:103B5800A3E2A4EAC4EAA4E2A3E2A3E2A3E2A4E201
:103B6800C4EAC4EAC4EAC4EAC4EAC4EAA3E2A3E22F
:103B7800A3E2A3E2A4EAC4EAC4EAA4EAA3E2C4EA88
:103B880005EB26EB47EB47EB47EB47EBE5EAA4E20F
:103B9800A4EAC4EAC4EAC4EAC4EAC4EAC4EA05FB7B
:103BA8008EF405FBC4EAC4EAC4EAC4EAC4EAC4EA77
:103BB800E5EA51F5FFFFF5F505EBA4EAC4EA2CECBC
:103BC8005CFFD4F5E5EAC4EAC4EAC4EAC4EAC4EA94
:103BD800C4EAC4EAC4EAC4EAC4EAC4EAC4EAC4EA6D
:103BE800C4EAC4EAC4EAC4EAC4EAC4EAC4EAC4EA5D
:103BF800C4EAC4EA83E231F5FFFF8EF483E2A4E26B
:103C08002BEC9DFFB8FE68EBA4E2C4EAC4EA83E2A9
:103C1800CAEB7DFFFFFFFFFFFFFFDFFFF0F468EB5C
:103C2800CAEB51F57DFFFFFFFFFFFFFFDFFF52F5F6
:103C3800C5EAA4EA26EB88EB88EB88EB89EB68EB0E
:103C4800E5EAC4EAC4EAE5EA67EBA9EB88EB88EBA6
:103C580089EB26EB47EB0BEC4CEC2CEC4CECEAEB51
:103C680005EBC4EAC4EAC4EAC4EAE5EAEAEB4CECC8
:103C78002CEC4CECEAEB06EBC4EA26EB0BECCFF4AD
:103C880092F536F6B8FED9FED9FE77FE72F50BEC42
:103C980005EBA4EAC4EAC4EAC4EAC4EAC4EA05FB38
:103CA8008EF405FBC4EAC4EAC4EAC4EAC4EAC4EA76
:103CB800A4E247EB98FEBEFFCFF4A4E2A4EAEAEB45
:103CC8005CFF36F6E5EAA4EAC4EAC4EAC4EAC4EA50
:103CD800C4EAC4EAC4EAC4EAC4EAC4EAC4EAC4EA6C
:103CE800C4EAC4EAC4EAC4EAC4EAC4EAC4EAC4EA5C
:103CF800C4EAC4EAA4E272F5FFFF6DEC62E247EBA6
:103D080078FE9DFF8DF4A3E2C4EAC4EAC4EA83E224
:103D1800CAEB7DFFFFFFFFFFFFFFDFFF6DF483E2CC
:103D280083E226EB15F6FFFFFFFFFFFFFFFFD4F549
:103D3800E5EA83E2AEF4FAFEFAFEFAFE1AFF36F678
:103D480068EBA4EAC4EA26EBF5F51BFFFAFEFAFED7
:103D58001AFFEFF488EBD9FEFFFFDFFFFFFF3BFF01
:103D68000BECA4EAC4EAC4EAA4E2A9EB3BFFFFFF18
:103D7800DFFFFFFF16F626EBC4EAEFF49DFFFFFF17
:103D8800FFFFFFFFFFFFFFFFFFFFFFFFFFFF7DFFBD
:103D980031F506EBA4EAC4EAC4EAC4EAC4EA05FBBE
:103DA8008EF405FBC4EAC4EAC4EAC4EAC4EAC4EA75
:103DB800C4EAA4EA0BEC7CFF3CFF0BEC83E267EB64
:103DC8005CFFB9FEE5EAA4EAC4EAC4EAC4EAC4EAC4
:103DD800C4EAC4EAC4EAC4EAC4EAC4EAC4EAC4EA6B
:103DE800C4EAC4EAC4EAC4EAC4EAC4EAC4EAC4EA5B
:103DF800C4EAC4EAE5EAF4F59DFF0BECA4EA72F51F
:103E0800DFFFD4F5E5EAC4EAC4EAC4EAC4EA83E217
:103E1800CAEB7DFFFFFFFFFFFFFFDFFF6DF4A3EAA3
:103E280083E2E5EAF5F5FFFFFFFFFFFFFFFFD4F5AB
:103E3800E5EA63E231F5FFFFFFFFFFFFFFFF3BFF0E
:103E4800A9EBA4EAA4EA47EBD9FEFFFFFFFFFFFFB7
:103E5800FFFF93F5A3E2B3F5FFFFFFFFFFFFFFFFAF
:103E680072F5A4E2C4EAC4EAC4EA31F5FFFFFFFF31
:103E7800FFFFFFFFEFF483E2E5EA51F5FFFFFFFFE5
:103E8800FFFFFFFFFFFFFFFFFFFFFFFFFFFFFFFF3A
:103E9800BEFFEFF4C4EAC4EAC4EAC4EAC4EA05FB14
:103EA8008EF405FBC4EAC4EAC4EAC4EAC4EAC4EA74
:103EB800C4EAC4EAC4EAEFF4BEFFD9FEA9EBE5EA16
:103EC800FAFE3BFF47EBA4E2C4EAC4EAC4EAC4EA48
:103ED800C4EAC4EAC4EAC4EAC4EAC4EAC4EAC4EA6A
:103EE800C4EAC4EAC4EAC4EAC4EAC4EAC4EAC4EA5A
:103EF800C4EAA4EA47EB77FEFAFEA9EB8EF4BEFF0C
:103F0800B9FE88EBA4EAC4EAC4EAC4EAC4EA83E2D4
:103F1800CAEB7DFFFFFFFFFFFFFFDFFFCFF447EB9B
:103F280088EBF0F45CFFFFFFFFFFFFFFDFFF51F5B9
:103F3800C4EA83E230F5FFFFFFFFFFFFFFFF3BFF0F
:103F4800A8EBA4EAA4EA47EBD9FEFFFFFFFFFFFFB7
:103F5800FFFF93F563E2EAEB3BFFFFFFFFFFFFFF85
:103F680098FE26EBC4EAA4EA47EBB9FEFFFFFFFF81
:103F7800FFFFB9FE88EB83E2E5EA52F5DFFF5CFF5D
:103F880077FED4F593F5D4F5FAFEFFFFFFFFFFFFA8
:103F9800FFFF57FE47EBA4EAC4EAC4EAC4EA05FBFC
:103FA8008EF405FBC4EAC4EAC4EAC4EAC4EAC4EA73
:103FB800C4EAC4EAA4E2E5EA72F5FFFF98FECAEB98
:103FC80015F65CFF0BECA4EAC4EAC4EAC4EAC4EA46
:103FD800C4EAC4EAC4EAC4EAC4EAC4EAC4EAC4EA69
:103FE800C4EAC4EAC4EAC4EAC4EAC4EAC4EAC4EA59
:103FF800C4EAA3E2C9EB1BFF56FEF0F45CFF5CFFCA
:104008002BECA4EAC4EAC4EAC4EAC4EAC4EA83E238
:10401800CAEB7DFFFFFFFFFFFFFFFFFFFAFE98FEE1
:10402800D9FE9DFFFFFFFFFFFFFFFFFF9DFF2BEC6A
:10403800A4EA83E230F5FFFFFFFFFFFFFFFF3BFF2E
:10404800A8EBA4EAA4EA47EBD9FEFFFFFFFFFFFFB6
:10405800FFFF93F583E2E5EAF5F5FFFFFFFFFFFFBA
:104068007CFF6DECA3E2A4EA6DEC9DFFFFFFFFFF70
:10407800FFFF52F5A4EAC4EAE5EA2BECCFF40BEC17
:1040880047EBC4EA83E2C4E2EAEBFAFEFFFFFFFF74
:10409800FFFFB8FE88EBA4E2C4EAC4EAC4EA05FB61
:1040A8008EF405FBC4EAC4EAC4EAC4EAC4EAC4EA72
:1040B800C4EAC4EAC4EAA4E226EBB3F5DFFFB9FE1A
:1040C80036F67DFFEFF4C4EAC4EAC4EAC4EAC4EAF7
:1040D800C4EAC4EAC4EAC4EAC4EAC4EAC4EAC4EA68
:1040E800C4EAC4EAC4EAC4EAC4EAC4EAC4EAC4EA58
:1040F800C4EA83E24CECBEFF1AFF5CFF7DFF8EF43E
:10410800C4E2C4EAC4EAC4EAC4EAC4EAC4EA83E288
:10411800CAEB7DFFFFFFFFFFFFFFFFFFFFFFFFFF72
:10412800FFFFFFFFFFFFFFFFFFFFFFFF15F606EB97
:10413800A4E283E230F5FFFFFFFFFFFFFFFF3BFF35
:10414800A8EBA4EAA4EA47EBD9FEFFFFFFFFFFFFB5
:10415800FFFF93F583E2A4EA4CEC7DFFFFFFFFFF2E
:10416800FFFF93F5A4EAC4EA15F6FFFFFFFFFFFF80
:104178003BFF0AECA3E2C4EAC4EAC4EA83E283E2AE
:10418800C4EA47EBEAEB4CECEFF4FAFEFFFFFFFF63
:10419800FFFF98FE88EBA4E2C4EAC4EAC4EA05FB80
:1041A8008EF405FBC4EAC4EAC4EAC4EAC4EAC4EA71
:1041B800C4EAC4EAC4EAC4EAA4EA26EB93F5BEFF5B
:1041C800DEFFFFFFD4F5A4EAA4EAC4EAC4EAC4EA1D
:1041D800C4EAC4EAC4EAC4EAC4EAC4EAC4EAC4EA67
:1041E800C4EAC4EAC4EAC4EAC4EAC4EAC4EAC4EA57
:1041F800A4EAA4E231F5FFFFFFFF7CFFCFF4C4EA95
:10420800C4EAC4EAC4EAC4EAC4EAC4EAC4EA83E27F
:10421800CAEB7DFFFFFFFFFFFFFFFFFFFFFFFFFF71
:10422800FFFFFFFFFFFFFFFFBEFF36F688EBC4EA84
:10423800C4EA83E230F5FFFFFFFFFFFFFFFF3BFF0C
:10424800A8EBA4EAA4EA47EBD9FEFFFFFFFFFFFFB4
:10425800FFFF93F5A3E2A4E206EB57FEFFFFFFFF83
:10426800FFFFB8FE67EBA9EB1BFFFFFFFFFFFFFF98
:10427800F5F5E5EAC4EAC4EAC4EAE5EAC9EB51F5AA
:1042880057FEFAFE5CFF9DFFDEFFFFFFFFFFFFFF0B
:10429800FFFF98FE88EBA4E2C4EAC4EAC4EA05FB7F
:1042A8008EF405FBC4EAC4EAC4EAC4EAC4EAC4EA70
:1042B800C4EAC4EAC4EAC4EAC4EAA4EA06EB30F5EC
:1042C8007DFFFFFFFAFEA9EBA4EAA4E2C4EAC4EA70
:1042D800C4EAC4EAC4EAC4EAC4EAC4EAC4EAC4EA66
:1042E800C4EAC4EAC4EAC4EAC4EAC4EAC4EAA4E27E
:1042F800A3E2A9EB98FEFFFF3BFF8EF4C4EAA4EA11
:10430800C4EAC4EAC4EAC4EAC4EAC4EAC4EA83E27E
:10431800CAEB7DFFFFFFFFFFFFFFFFFF5CFF1AFFF8
:104328001AFFFAFEB9FEF5F58DF447EBA4EAC4EAE4
:10433800C4EA83E230F5FFFFFFFFFFFFFFFF3BFF0B
:10434800A8EBA4EAA4EA47EBD9FEFFFFFFFFFFFFB3
:10435800FFFF93F5A3E2C4EAC4EA8DF4BEFFFFFFB2
:10436800FFFF9DFF6DEC10F5DFFFFFFFFFFF9DFFD7
:104378006DF4A4E2C4EAC4EA06EB31F53BFFDFFFC3
:10438800FFFFFFFFFFFFDEFFBEFFDFFFFFFFFFFFB7
:10439800FFFF98FE88EBA4E2C4EAC4EAC4EA05FB7E
:1043A8008EF405FBC4EAC4EAC4EAC4EAC4EAC4EA6F
:1043B800C4EAC4EAC4EAC4EAC4EAC4EAA4EAE5EA84
:1043C8006DECFAFEFFFFB8FE6DEC26EBA4E2A3E26B
:1043D800C4EAC4EAC4EAC4EAC4EAC4EAC4EAC4EA65
:1043E800C4EAC4EAC4EAC4EAC4EAA3E2A3E226EB44
:1043F8006DEC98FEFFFFD9FE0BECC4E2C4EAC4EAF8
:10440800C4EAC4EAC4EAC4EAC4EAC4EAC4EA83E27D
:10441800CAEB7DFFFFFFFFFFFFFFDFFFCEF426EBB8
:1044280026EB26EB26EB05EBC4EAA4E2C4EAC4EAD1
:10443800C4EA83E230F5FFFFFFFFFFFFFFFF3BFF0A
:1044480088EBA4EAA4EA68EBD9FEFFFFFFFFFFFFB1
:10445800FFFF93F5A3E2C4EAA4EA26EB98FEFFFF68
:10446800FFFFFFFF36F6B9FEFFFFFFFFFFFF98FED5
:1044780026EBA4EAC4EAC4EAEFF4BEFFFFFFFFFF9D
:10448800FFFF1AFF92F58DF46DEC57FEFFFFFFFF5B
:10449800FFFF98FE88EBA4E2C4EAC4EAC4EA05FB7D
:1044A8008EF405FBC4EAC4EAC4EAC4EAC4EAC4EA6E
:1044B800C4EAC4EAC4EAC4EAC4EAC4EAC4EAC4EA84
:1044C800A4EAA9EB77FEFFFFBEFF56F68EF4A9EB30
:1044D800E5EA83E283E2A4E2A4EAA4EAC4EAA4EA5D
:1044E800A4EAA4E2A3E283E2C4EA68EB6DEC15F661
:1044F800BEFFFFFFD9FECAEBA4EAC4EAC4EAC4EAD5
:10450800C4EAC4EAC4EAC4EAC4EAC4EAC4EA83E27C
:10451800CAEB7DFFFFFFFFFFFFFFDFFF6DF4A3E2A4
:10452800A3E2A4E2A4E2A4EAC4EAC4EAC4EAC4EAAC
:10453800C4EA83E230F5FFFFFFFFFFFFFFFF3BFF09
:10454800C9EBA3E283E2EAEB3BFFFFFFFFFFFFFFBC
:10455800FFFF93F5A3E2C4EAC4EAC4EACFF4DFFF9D
:10456800FFFFFFFFDEFFDFFFFFFFFFFFDEFF10F5AE
:10457800C4EAC4EAA4EA05EB98FEFFFFFFFFFFFFC9
:10458800D9FECAEBC4EAA4EAE5EAB4F5FFFFFFFFE7
:10459800FFFF98FE88EBA4E2C4EAC4EAC4EA05FB7C
:1045A8008EF405FBC4EAC4EAC4EAC4EAC4EAC4EA6D
:1045B800C4EAC4EAC4EAC4EAC4EAC4EAC4EAC4EA83
:1045C800C4EAA4E288EB57F6FFFFFFFFDFFFFAFE1D
:1045D800B4F5CFF42BECA9EB67EB26EB06EB06EB77
:1045E80027EB88EBEAEB8DF472F598FEBEFFFFFF30
:1045F800FFFFFAFE0BECA4EAC4EAC4EAC4EAC4EA80
:10460800C4EAC4EAC4EAC4EAC4EAC4EAC4EA83E27B
:10461800CAEB7DFFFFFFFFFFFFFFDFFF6DF4C4EA7A
:10462800C4EAC4EAC4EAC4EAC4EAC4EAC4EAC4EA12
:10463800C4EA83E210F5FFFFFFFFFFFFFFFFBEFFA5
:1046480051F526EB47EBB3F5DFFFFFFFFFFFFFFF59
:10465800FFFF93F5A3E2C4EAC4EAA4E268EBDAFE3A
:10466800FFFFFFFFFFFFFFFFFFFFFFFFFAFE88EBE3
:10467800A4EAC4EAA4EA47EBFAFEFFFFFFFFFFFF44
:1046880093F583E2A4EAA3EAC5EAB3F5FFFFFFFFC7
:10469800FFFF98FE88EBA4E2C4EAC4EAC4EA05FB7B
:1046A8008EF405FBC4EAC4EAC4EAC4EAC4EAC4EA6C
:1046B800C4EAC4EAC4EAC4EAC4EAC4EAC4EAC4EA82
:1046C800C4EAC4EAA3E268EB36F6FFFFFFFF7DFF0A
:1046D8009DFFFFFF7DFFDAFE77FE36F615F615F62D
:1046E80056F6B8FE3BFFDFFFDEFF7DFFFFFFFFFF53
:1046F800D9FE2BECA4E2C4EAC4EAC4EAC4EAC4EAD8
:10470800C4EAC4EAC4EAC4EAC4EAC4EAC4EA83E27A
:10471800CAEB7DFFFFFFFFFFFFFFDFFF6DF4C4EA79
:10472800C4EAC4EAC4EAC4EAC4EAC4EAC4EAC4EA11
:10473800C4EA83E2CFF4DFFFFFFFFFFFFFFFFFFFC5
:104748007DFF16F657FEBEFFFFFFFFFFFFFFFFFFCF
:10475800FFFF93F5A3E2C4EAC4EAC4EAC5EA30F568
:10476800FFFFFFFFFFFFFFFFFFFFFFFF93F5C4EA17
:10477800C4EAC4EAA4EA26EBD9FEFFFFFFFFFFFF65
:1047880015F605EB83E2C4EAA9EB77FEFFFFFFFF0E
:10479800FFFF98FE88EBA4E2C4EAC4EAC4EA05FB7A
:1047A8008EF405FBC4EAC4EAC4EAC4EAC4EAC4EA6B
:1047B800C4EAC4EAC4EAC4EAC4EAC4EAC4EAC4EA81
:1047C800C4EAC4EAC4EAA3EA47EBD4F5DFFF5CFF16
:1047D80093F510F5D4F577FEFAFE3BFF5CFF3CFF3E
:1047E8001BFFB9FE16F651F593F53BFFFFFF78FE68
:1047F800EAEBA4E2C4EAC4EAC4EAC4EAC4EAC4EA42
:10480800C4EAC4EAC4EAC4EAC4EAC4EAC4EA83E279
:10481800CAEB9DFFFFFFFFFFFFFFDFFF6DF4C4EA58
:10482800C4EAC4EAC4EAC4EAC4EAC4EAC4EAC4EA10
:10483800C4EAA3E22BEC3BFFFFFFFFFFFFFFFFFFF4
:10484800FFFFFFFFFFFFFFFFDFFFFFFFFFFFFFFF90
:10485800FFFF93F5A3E2C4EAC4EAC4EAA3E2C9EB02
:104868001BFFFFFFFFFFFFFFFFFF7CFFEAEBA4EA50
:10487800C4EAC4EAC4EAE5EAD4F5FFFFFFFFFFFF94
:104888009DFF36F6B3F5F5F5D9FEDEFFFFFFFFFF16
:10489800FFFF98FE88EBA4E2C4EAC4EAC4EA05FB79
:1048A8008EF405FBC4EAC4EAC4EAC4EAC4EAC4EA6A
:1048B800C4EAC4EAC4EAC4EAC4EAC4EAC4EAC4EA80
:1048C800C4EAC4EAC4EAC4EAA3E226EB72F5BEFF6E
:1048D800FAFE6DEC06EB47EBA9EBCAEBCAEBCAEBA9
:1048E800A9EB67EB26EB4CECB9FEBEFF15F688EB9F
:1048F800A4E2C4EAC4EAC4EAC4EAC4EAC4EAC4EA68
:10490800C4EAC4EAC4EAC4EAC4EAC4EAC4EA83E278
:10491800CAEB9DFFFFFFFFFFFFFFFFFF8DF4C4EA17
:10492800C4EAC4EAC4EAC4EAC4EAC4EAC4EAC4EA0F
:10493800C4EAC4EA06EBF5F5FFFFFFFFFFFFFFFF40
:10494800FFFFFFFFFFFFB9FEB8FEFFFFFFFFFFFFFE
:10495800FFFFB3F5A3E2C4EAC4EAC4EAA4EA06EB9B
:10496800D4F5FFFFFFFFFFFFFFFF36F606EBA4E2DB
:10497800C4EAC4EAC4EAC4EAC9EBD9FEFFFFFFFFF0
:10498800FFFFFFFFFFFFFFFFFFFFBEFFFFFFFFFF70
:10499800FFFFB9FE88EBA4E2C4EAC4EAC4EA05FB57
:1049A8008EF405FBC4EAC4EAC4EAC4EAC4EAC4EA69
:1049B800C4EAC4EAC4EAC4EAC4EAC4EAC4EAC4EA7F
:1049C800C4EAC4EAC4EAC4EAC4EAA4EA05EBCFF438
:1049D8005CFF9DFF72F526EB83E283E2A3E283E2AC
:1049E80083E206EB31F57DFF9DFF31F526EBA4E26E
:1049F800C4EAC4EAC4EAC4EAC4EAC4EAC4EAC4EA3F
:104A0800C4EAC4EAC4EAC4EAC4EAC4EAC4EAA4E256
:104A180088EB15F698FE77FE98FE57FEEAEBC4EA97
:104A2800C4EAC4EAC4EAC4EAC4EAC4EAC4EAC4EA0E
:104A3800C4EAC4EAA4E2A9EB36F6DEFFFFFFFFFFF3
:104A4800FFFFBEFF56F6CAEB72F5BEFFDEFFDEFFC4
:104A5800DFFF72F5A3E2C4EAC4EAC4EAA4E247EBC2
:104A680057F6FFFFFFFFFFFFBEFF6DECA4EAC4EAA5
:104A7800C4EAC4EAC4EAC4EAC4EACAEBD4F53BFF10
:104A8800BEFFBEFF9DFF98FE10F5F5F59DFFBEFF2A
:104A9800BEFF57FE88EBA4E2C4EAC4EAC4EA05FBF9
:104AA8008EF405FBC4EAC4EAC4EAC4EAC4EAC4EA68
:104AB800C4EAC4EAC4EAC4EAC4EAC4EAC4EAC4EA7E
:104AC800C4EAC4EAC4EAC4EAC4EAC4EAA4EAC4EA8E
:104AD8002BECB9FEDFFF98FE2BECE5EAA3E2C5EA72
:104AE8000BEC77FEDFFFFAFE6DECC5EAA4E2C4EA40
:104AF800C4EAC4EAC4EAC4EAC4EAC4EAC4EAC4EA3E
:104B0800C4EAC4EAC4EAC4EAC4EAC4EAC4EAC4EA2D
:104B1800E5EA47EB47EB47EB47EB47EBE5EAC4EA47
:104B2800C4EAC4EAC4EAC4EAC4EAC4EAC4EAC4EA0D
:104B3800C4EAC4EAC4EAC4EA47EB6DF472F5B3F513
:104B480052F56DEC47EBA4EAA9EB6DEC6DEC6DEC5E
:104B58006DECA9EBC4EAC4EAC4EAC4EAA3E20BEC2C
:104B68009DFFFFFFFFFFFFFFB8FE67EBA4E2C4EA6B
:104B7800C4EAC4EAC4EAC4EAC4EAA4E206EB88EBDD
:104B8800EAEB0BECC9EB47EBE5EA27EBA9EBA9EB62
:104B9800A9EB68EBE5EAC4EAC4EAC4EAC4EA05FB9F
:104BA8008EF405FBC4EAC4EAC4EAC4EAC4EAC4EA67
:104BB800C4EAC4EAC4EAC4EAC4EAC4EAC4EAC4EA7D
:104BC800C4EAC4EAC4EAC4EAC4EAC4EAC4EAC4EA6D
:104BD800A4EA68EBB4F59DFF7DFF52F5C9EB30F50B
:104BE8007DFFBEFFF5F5A9EBA4EAA4EAC4EAC4EA8E
:104BF800C4EAC4EAC4EAC4EAC4EAC4EAC4EAC4EA3D
:104C0800C4EAC4EAC4EAC4EAC4EAC4EAC4EAC4EA2C
:104C1800C4EAA4E2A4E2A4E2A4E2A4E2C4EAC4EAE4
:104C2800C4EAC4EAC4EAC4EAC4EAC4EAC4EAC4EA0C
:104C3800C4EAC4EAC4EAC4EAA4E2C4EAE5EA05EBC1
:104C4800E5EAC4EAA4E2C4EAC4EAC4EAC4EAC4EAF3
:104C5800C4E2C4EAC4EAC4EAC4EAC4EAE5EA31F54B
:104C6800FFFFFFFFFFFFFFFF10F5C4EAC4EAC4EA35
:104C7800C4EAC4EAC4EAC4EAC4EAC4EAA4EAA3E205
:104C8800A4E2A4E2A3E2A4E2C4EAA4E2A3E283E2E7
:104C980083E2A4E2C4EAC4EAC4EAC4EAC4EA05FBBB
:104CA8008EF405FBC4EAC4EAC4EAC4EAC4EAC4EA66
:104CB800C4EAC4EAC4EAC4EAC4EAC4EAC4EAC4EA7C
:104CC800C4EAC4EAC4EAC4EAC4EAC4EAC4EAC4EA6C
:104CD800C4EAA4EAE5EA6DECD9FEDFFF9DFFDEFF3A
:104CE8001BFFCFF405EBA4EAC4EAC4EAC4EAC4EAA9
:104CF800C4EAC4EAC4EAC4EAC4EAC4EAC4EAC4EA3C
:104D0800C4EAC4EAC4EAC4EAC4EAC4EAC4EAC4EA2B
:104D1800C4EAC4EAC4EAC4EAC4EAC4EAC4EAC4EA1B
:104D2800C4EAC4EAC4EAC4EAC4EAC4EAC4EAC4EA0B
:104D3800C4EAC4EAC4EAC4EAC4EAC4EAC4EAA4EA1B
:104D4800C4EAC4EAC4EAC4EAC4EAC4EAC4EAC4EAEB
:104D5800C4EAC4EAC4EAC4EAC4EAA4E247EB98FE97
:104D6800FFFFFFFFFFFF1BFFC9EB83E2C4EAC4EAB2
:104D7800C4EAC4EAC4EAC4EAC4EAC4EAC4EAC4EABB
:104D8800C4EAC4EAC4EAC4EAC4EAC4EAC4EAC4EAAB
:104D9800C4EAC4EAC4EAC4EAC4EAC4EAC4EA05FB49
:104DA8008EF405FBC4EAC4EAC4EAC4EAC4EAC4EA65
:104DB800C4EAC4EAC4EAC4EAC4EAC4EAC4EAC4EA7B
:104DC800C4EAC4EAC4EAC4EAC4EAC4EAC4EAC4EA6B
:104DD800C4EAC4EAC4EAA4E268EB93F5FAFEF5F57E
:104DE800A9EBC4EAA4EAC4EAC4EAC4EAC4EAC4EA85
:104DF800C4EAC4EAC4EAC4EAC4EAC4EAC4EAC4EA3B
:104E0800C4EAC4EAC4EAC4EAC4EAC4EAC4EAC4EA2A
:104E1800C4EAC4EAC4EAC4EAC4EAC4EAC4EAC4EA1A
:104E2800C4EAC4EAC4EAC4EAC4EAC4EAC4EAC4EA0A
:104E3800C4EAC4EAC4EAC4EAC4EAC4EAC4EAC4EAFA
:104E4800C4EAC4EAC4EAC4EAC4EAC4EAC4EAC4EAEA
:104E5800C4EAC4EAC4EAC4EAC4EAA4E22BECDEFF6A
:104E6800FFFFFFFFFFFF93F5E5EAC4EAC4EAC4EADF
:104E7800C4EAC4EAC4EAC4EAC4EAC4EAC4EAC4EABA
:104E8800C4EAC4EAC4EAC4EAC4EAC4EAC4EAC4EAAA
:104E9800C4EAC4EAC4EAC4EAC4EAC4EAC4EA05FB48
:104EA8008EF405FBC4EAC4EAC4EAC4EAC4EAC4EA64
:104EB800C4EAC4EAC4EAC4EAC4EAC4EAC4EAC4EA7A
:104EC800C4EAC4EAC4EAC4EAC4EAC4EAC4EAC4EA6A
:104ED800C4EAC4EAC4EAC4EAA4EAE5EAA9EB06EB30
:104EE800A4EAC4EAC4EAC4EAC4EAC4EAC4EAC4EA6A
:104EF800C4EAC4EAC4EAC4EAC4EAC4EAC4EAC4EA3A
:104F0800C4EAC4EAC4EAC4EAC4EAC4EAC4EAC4EA29
:104F1800C4EAC4EAC4EAC4EAC4EAC4EAC4EAC4EA19
:104F2800C4EAC4EAC4EAC4EAC4EAC4EAC4EAC4EA09
:104F3800C4EAC4EAC4EAC4EAC4EAC4EAC4EAC4EAF9
:104F4800C4EAC4EAC4EAC4EAC4EAC4EAC4EAC4EAE9
:104F5800C4EAC4EAC4EAC4EAC4EAC4EA2BECF5F534
:104F680036F616F6F5F5CAEBA3E2C4EAC4EAC4EAD3
:104F7800C4EAC4EAC4EAC4EAC4EAC4EAC4EAC4EAB9
:104F8800C4EAC4EAC4EAC4EAC4EAC4EAC4EAC4EAA9
:104F9800C4EAC4EAC4EAC4EAC4EAC4EAC4EA05FB47
:104FA8008EF405FBC4EAC4EAC4EAC4EAC4EAC4EA63
:104FB800C4EAC4EAC4EAC4EAC4EAC4EAC4EAC4EA79
:104FC800C4EAC4EAC4EAC4EAC4EAC4EAC4EAC4EA69
:104FD800C4EAC4EAC4EAC4EAC4EAC4EAA4E2C4EA81
:104FE800C4EAC4EAC4EAC4EAC4EAC4EAC4EAC4EA49
:104FF800C4EAC4EAC4EAC4EAC4EAC4EAC4EAC4EA39
:10500800C4EAC4EAC4EAC4EAC4EAC4EAC4EAC4EA28
:10501800C4EAC4EAC4EAC4EAC4EAC4EAC4EAC4EA18
:10502800C4EAC4EAC4EAC4EAC4EAC4EAC4EAC4EA08
:10503800C4EAC4EAC4EAC4EAC4EAC4EAC4EAC4EAF8
:10504800C4EAC4EAC4EAC4EAC4EAC4EAC4EAC4EAE8
:10505800C4EAC4EAC4EAC4EAC4EAC4EAE5EA06EB74
:1050680006EB06EB05EBC4EAC4EAC4EAC4EAC4EA00
:10507800C4EAC4EAC4EAC4EAC4EAC4EAC4EAC4EAB8
:10508800C4EAC4EAC4EAC4EAC4EAC4EAC4EAC4EAA8
:10509800C4EAC4EAC4EAC4EAC4EAC4EAC4EA05FB46
:1050A8008EF405FBC4EAC4EAC4EAC4EAC4EAC4EA62
:1050B800C4EAC4EAC4EAC4EAC4EAC4EAC4EAC4EA78
:1050C800C4EAC4EAC4EAC4EAC4EAC4EAC4EAC4EA68
:1050D800C4EAC4EAC4EAC4EAC4EAC4EAC4EAC4EA58
:1050E800C4EAC4EAC4EAC4EAC4EAC4EAC4EAC4EA48
:1050F800C4EAC4EAC4EAC4EAC4EAC4EAC4EAC4EA38
:10510800C4EAC4EAC4EAC4EAC4EAC4EAC4EAC4EA27
:10511800C4EAC4EAC4EAC4EAC4EAC4EAC4EAC4EA17
:10512800C4EAC4EAC4EAC4EAC4EAC4EAC4EAC4EA07
:10513800C4EAC4EAC4EAC4EAC4EAC4EAC4EAC4EAF7
:10514800C4EAC4EAC4EAC4EAC4EAC4EAC4EAC4EAE7
:10515800C4EAC4EAC4EAC4EAC4EAC4EAC4EAA4EAF7
:10516800A4EAA4EAA4EAC4EAC4EAC4EAC4EAC4EA27
:10517800C4EAC4EAC4EAC4EAC4EAC4EAC4EAC4EAB7
:10518800C4EAC4EAC4EAC4EAC4EAC4EAC4EAC4EAA7
:10519800C4EAC4EAC4EAC4EAC4EAC4EAC4EA05FB45
:1051A8008EF405FBC4EAC4EAC4EAC4EAC4EAC4EA61
:1051B800C4EAC4EAC4EAC4EAC4EAC4EAC4EAC4EA77
:1051C800C4EAC4EAC4EAC4EAC4EAC4EAC4EAC4EA67
:1051D800C4EAC4EAC4EAC4EAC4EAC4EAC4EAC4EA57
:1051E800C4EAC4EAC4EAC4EAC4EAC4EAC4EAC4EA47
:1051F800C4EAC4EAC4EAC4EAC4EAC4EAC4EAC4EA37
:10520800C4EAC4EAC4EAC4EAC4EAC4EAC4EAC4EA26
:10521800C4EAC4EAC4EAC4EAC4EAC4EAC4EAC4EA16
:10522800C4EAC4EAC4EAC4EAC4EAC4EAC4EAC4EA06
:10523800C4EAC4EAC4EAC4EAC4EAC4EAC4EAC4EAF6
:10524800C4EAC4EAC4EAC4EAC4EAC4EAC4EAC4EAE6
:10525800C4EAC4EAC4EAC4EAC4EAC4EAC4EAC4EAD6
:10526800C4EAC4EAC4EAC4EAC4EAC4EAC4EAC4EAC6
:10527800C4EAC4EAC4EAC4EAC4EAC4EAC4EAC4EAB6
:10528800C4EAC4EAC4EAC4EAC4EAC4EAC4EAC4EAA6
:10529800C4EAC4EAC4EAC4EAC4EAC4EAC4EA05FB44
:1052A8008EF405FBC4EAC4EAC4EAC4EAC4EAC4EA60
:1052B800C4EAC4EAC4EAC4EAC4EAC4EAC4EAC4EA76
:1052C800C4EAC4EAC4EAC4EAC4EAC4EAC4EAC4EA66
:1052D800C4EAC4EAC4EAC4EAC4EAC4EAC4EAC4EA56
:1052E800C4EAC4EAC4EAC4EAC4EAC4EAC4EAC4EA46
:1052F800C4EAC4EAC4EAC4EAC4EAC4EAC4EAC4EA36
:10530800C4EAC4EAC4EAC4EAC4EAC4EAC4EAC4EA25
:10531800C4EAC4EAC4EAC4EAC4EAC4EAC4EAC4EA15
:10532800C4EAC4EAC4EAC4EAC4EAC4EAC4EAC4EA05
:10533800C4EAC4EAC4EAC4EAC4EAC4EAC4EAC4EAF5
:10534800C4EAC4EAC4EAC4EAC4EAC4EAC4EAC4EAE5
:10535800C4EAC4EAC4EAC4EAC4EAC4EAC4EAC4EAD5
:10536800C4EAC4EAC4EAC4EAC4EAC4EAC4EAC4EAC5
:10537800C4EAC4EAC4EAC4EAC4EAC4EAC4EAC4EAB5
:10538800C4EAC4EAC4EAC4EAC4EAC4EAC4EAC4EAA5
:10539800C4EAC4EAC4EAC4EAC4EAC4EAC4EA05FB43
:1053A8004CEC45FB05FB05FB05FB05FB05FB05FB7D
:1053B80005FB05FB05FB05FB05FB05FB05FB05FBE5
:1053C80005FB05FB05FB05FB05FB05FB05FB05FBD5
:1053D80005FB05FB05FB05FB05FB05FB05FB05FBC5
:1053E80005FB05FB05FB05FB05FB05FB05FB05FBB5
:1053F80005FB05FB05FB05FB05FB05FB05FB05FBA5
:1054080005FB05FB05FB05FB05FB05FB05FB05FB94
:1054180005FB05FB05FB05FB05FB05FB05FB05FB84
:1054280005FB05FB05FB05FB05FB05FB05FB05FB74
:1054380005FB05FB05FB05FB05FB05FB05FB05FB64
:1054480005FB05FB05FB05FB05FB05FB05FB05FB54
:1054580005FB05FB05FB05FB05FB05FB05FB05FB44
:1054680005FB05FB05FB05FB05FB05FB05FB05FB34
:1054780005FB05FB05FB05FB05FB05FB05FB05FB24
:1054880005FB05FB05FB05FB05FB05FB05FB05FB14
:1054980005FB05FB05FB05FB05FB05FB05FB25FBE4
:1054A80000000000000000000102030406070809CC
:0454B800BD0100082A
:0454BC00990100084A
:0C54C00001000000080000000024F400BF
:04000005080015A535
:00000001FF
